8=FIX.4.4|9=77|35=A|34=1|49=Initiator|52=20191218-12:07:05.608|56=Acceptor|98=0|108=6|141=Y|10=237|
8=FIX.4.4|9=77|35=A|34=1|49=Acceptor|52=20191218-12:07:05.695|56=Initiator|98=0|108=6|141=Y|10=243|
8=FIX.4.4|9=60|35=0|34=2|49=Acceptor|52=20191218-12:07:12.077|56=Initiator|10=186|
8=FIX.4.4|9=60|35=0|34=2|49=Initiator|52=20191218-12:07:12.144|56=Acceptor|10=181|
8=FIX.4.4|9=60|35=0|34=3|49=Acceptor|52=20191218-12:07:18.076|56=Initiator|10=192|
8=FIX.4.4|9=60|35=0|34=3|49=Initiator|52=20191218-12:07:18.590|56=Acceptor|10=193|
8=FIX.4.4|9=60|35=0|34=4|49=Acceptor|52=20191218-12:07:24.077|56=Initiator|10=191|
8=FIX.4.4|9=60|35=0|34=4|49=Initiator|52=20191218-12:07:24.589|56=Acceptor|10=199|
8=FIX.4.4|9=60|35=0|34=5|49=Acceptor|52=20191218-12:07:30.076|56=Initiator|10=188|
8=FIX.4.4|9=60|35=0|34=5|49=Initiator|52=20191218-12:07:30.590|56=Acceptor|10=189|
8=FIX.4.4|9=60|35=0|34=6|49=Acceptor|52=20191218-12:07:36.076|56=Initiator|10=195|
8=FIX.4.4|9=60|35=0|34=6|49=Initiator|52=20191218-12:07:36.589|56=Acceptor|10=204|
8=FIX.4.4|9=60|35=0|34=7|49=Acceptor|52=20191218-12:07:42.075|56=Initiator|10=192|
8=FIX.4.4|9=60|35=0|34=7|49=Initiator|52=20191218-12:07:42.590|56=Acceptor|10=194|
8=FIX.4.4|9=60|35=0|34=8|49=Acceptor|52=20191218-12:07:48.075|56=Initiator|10=199|
8=FIX.4.4|9=60|35=0|34=8|49=Initiator|52=20191218-12:07:48.589|56=Acceptor|10=209|
8=FIX.4.4|9=60|35=0|34=9|49=Acceptor|52=20191218-12:07:54.077|56=Initiator|10=199|
8=FIX.4.4|9=60|35=0|34=9|49=Initiator|52=20191218-12:07:54.589|56=Acceptor|10=207|
8=FIX.4.4|9=61|35=0|34=10|49=Acceptor|52=20191218-12:08:00.075|56=Initiator|10=230|
8=FIX.4.4|9=61|35=0|34=10|49=Initiator|52=20191218-12:08:00.591|56=Acceptor|10=233|
8=FIX.4.4|9=61|35=0|34=11|49=Acceptor|52=20191218-12:08:06.076|56=Initiator|10=238|
8=FIX.4.4|9=61|35=0|34=11|49=Initiator|52=20191218-12:08:06.589|56=Acceptor|10=247|
8=FIX.4.4|9=61|35=0|34=12|49=Acceptor|52=20191218-12:08:12.077|56=Initiator|10=237|
8=FIX.4.4|9=61|35=0|34=12|49=Initiator|52=20191218-12:08:12.590|56=Acceptor|10=237|
8=FIX.4.4|9=61|35=0|34=13|49=Acceptor|52=20191218-12:08:18.075|56=Initiator|10=242|
8=FIX.4.4|9=61|35=0|34=13|49=Initiator|52=20191218-12:08:18.590|56=Acceptor|10=244|
8=FIX.4.4|9=61|35=0|34=14|49=Acceptor|52=20191218-12:08:24.076|56=Initiator|10=241|
8=FIX.4.4|9=61|35=0|34=14|49=Initiator|52=20191218-12:08:24.589|56=Acceptor|10=250|
8=FIX.4.4|9=61|35=0|34=15|49=Acceptor|52=20191218-12:08:30.077|56=Initiator|10=240|
8=FIX.4.4|9=61|35=0|34=15|49=Initiator|52=20191218-12:08:30.589|56=Acceptor|10=248|
8=FIX.4.4|9=61|35=0|34=16|49=Acceptor|52=20191218-12:08:36.075|56=Initiator|10=245|
8=FIX.4.4|9=61|35=0|34=16|49=Initiator|52=20191218-12:08:36.588|56=Acceptor|10=254|
8=FIX.4.4|9=61|35=0|34=17|49=Acceptor|52=20191218-12:08:42.077|56=Initiator|10=245|
8=FIX.4.4|9=61|35=0|34=17|49=Initiator|52=20191218-12:08:42.589|56=Acceptor|10=253|
8=FIX.4.4|9=61|35=0|34=18|49=Acceptor|52=20191218-12:08:48.076|56=Initiator|10=251|
8=FIX.4.4|9=61|35=0|34=18|49=Initiator|52=20191218-12:08:48.589|56=Acceptor|10=004|
8=FIX.4.4|9=61|35=0|34=19|49=Acceptor|52=20191218-12:08:54.076|56=Initiator|10=249|
8=FIX.4.4|9=61|35=0|34=19|49=Initiator|52=20191218-12:08:54.590|56=Acceptor|10=250|
8=FIX.4.4|9=61|35=0|34=20|49=Acceptor|52=20191218-12:09:00.076|56=Initiator|10=233|
8=FIX.4.4|9=61|35=0|34=20|49=Initiator|52=20191218-12:09:00.589|56=Acceptor|10=242|
8=FIX.4.4|9=61|35=0|34=21|49=Acceptor|52=20191218-12:09:06.076|56=Initiator|10=240|
8=FIX.4.4|9=61|35=0|34=21|49=Initiator|52=20191218-12:09:06.589|56=Acceptor|10=249|
8=FIX.4.4|9=61|35=0|34=22|49=Acceptor|52=20191218-12:09:12.076|56=Initiator|10=238|
8=FIX.4.4|9=61|35=0|34=22|49=Initiator|52=20191218-12:09:12.589|56=Acceptor|10=247|
8=FIX.4.4|9=61|35=0|34=23|49=Acceptor|52=20191218-12:09:18.075|56=Initiator|10=244|
8=FIX.4.4|9=61|35=0|34=23|49=Initiator|52=20191218-12:09:18.589|56=Acceptor|10=254|
8=FIX.4.4|9=61|35=0|34=24|49=Acceptor|52=20191218-12:09:24.076|56=Initiator|10=243|
8=FIX.4.4|9=61|35=0|34=24|49=Initiator|52=20191218-12:09:24.589|56=Acceptor|10=252|
8=FIX.4.4|9=61|35=0|34=25|49=Acceptor|52=20191218-12:09:30.076|56=Initiator|10=241|
8=FIX.4.4|9=61|35=0|34=25|49=Initiator|52=20191218-12:09:30.591|56=Acceptor|10=243|
8=FIX.4.4|9=61|35=0|34=26|49=Acceptor|52=20191218-12:09:36.078|56=Initiator|10=250|
8=FIX.4.4|9=61|35=0|34=26|49=Initiator|52=20191218-12:09:36.589|56=Acceptor|10=001|
8=FIX.4.4|9=61|35=0|34=27|49=Acceptor|52=20191218-12:09:42.075|56=Initiator|10=245|
8=FIX.4.4|9=61|35=0|34=27|49=Initiator|52=20191218-12:09:42.590|56=Acceptor|10=247|
8=FIX.4.4|9=61|35=0|34=28|49=Acceptor|52=20191218-12:09:48.078|56=Initiator|10=255|
8=FIX.4.4|9=61|35=0|34=28|49=Initiator|52=20191218-12:09:48.590|56=Acceptor|10=254|
8=FIX.4.4|9=61|35=0|34=29|49=Acceptor|52=20191218-12:09:54.075|56=Initiator|10=250|
8=FIX.4.4|9=61|35=0|34=29|49=Initiator|52=20191218-12:09:54.589|56=Acceptor|10=004|
8=FIX.4.4|9=61|35=0|34=30|49=Acceptor|52=20191218-12:10:00.077|56=Initiator|10=227|
8=FIX.4.4|9=61|35=0|34=30|49=Initiator|52=20191218-12:10:00.592|56=Acceptor|10=229|
8=FIX.4.4|9=61|35=0|34=31|49=Acceptor|52=20191218-12:10:06.078|56=Initiator|10=235|
8=FIX.4.4|9=61|35=0|34=31|49=Initiator|52=20191218-12:10:06.591|56=Acceptor|10=235|
8=FIX.4.4|9=61|35=0|34=32|49=Acceptor|52=20191218-12:10:12.078|56=Initiator|10=233|
8=FIX.4.4|9=61|35=0|34=32|49=Initiator|52=20191218-12:10:12.591|56=Acceptor|10=233|
8=FIX.4.4|9=61|35=0|34=33|49=Acceptor|52=20191218-12:10:18.075|56=Initiator|10=237|
8=FIX.4.4|9=61|35=0|34=33|49=Initiator|52=20191218-12:10:18.593|56=Acceptor|10=242|
8=FIX.4.4|9=61|35=0|34=34|49=Acceptor|52=20191218-12:10:24.076|56=Initiator|10=236|
8=FIX.4.4|9=61|35=0|34=34|49=Initiator|52=20191218-12:10:24.592|56=Acceptor|10=239|
8=FIX.4.4|9=61|35=0|34=35|49=Acceptor|52=20191218-12:10:30.077|56=Initiator|10=235|
8=FIX.4.4|9=61|35=0|34=35|49=Initiator|52=20191218-12:10:30.591|56=Acceptor|10=236|
8=FIX.4.4|9=61|35=0|34=36|49=Acceptor|52=20191218-12:10:36.075|56=Initiator|10=240|
8=FIX.4.4|9=61|35=0|34=36|49=Initiator|52=20191218-12:10:36.591|56=Acceptor|10=243|
8=FIX.4.4|9=61|35=0|34=37|49=Acceptor|52=20191218-12:10:42.076|56=Initiator|10=239|
8=FIX.4.4|9=61|35=0|34=37|49=Initiator|52=20191218-12:10:42.590|56=Acceptor|10=240|
8=FIX.4.4|9=61|35=0|34=38|49=Acceptor|52=20191218-12:10:48.076|56=Initiator|10=246|
8=FIX.4.4|9=61|35=0|34=38|49=Initiator|52=20191218-12:10:48.592|56=Acceptor|10=249|
8=FIX.4.4|9=61|35=0|34=39|49=Acceptor|52=20191218-12:10:54.077|56=Initiator|10=245|
8=FIX.4.4|9=61|35=0|34=39|49=Initiator|52=20191218-12:10:54.589|56=Acceptor|10=253|
8=FIX.4.4|9=61|35=0|34=40|49=Acceptor|52=20191218-12:11:00.081|56=Initiator|10=224|
8=FIX.4.4|9=61|35=0|34=40|49=Initiator|52=20191218-12:11:00.590|56=Acceptor|10=229|
