8=FIX.4.4|9=106|35=X|34=1|49=Acceptor|52=20191218-13:03:08.310|56=Initiator|262=Test 1|268=1|279=0|269=2|55=BBVA|270=10.5|10=097|8=FIX.4.4|9=104|35=X|34=2|49=Acceptor|52=20191218-13:03:13.310|56=Initiator|262=Test 1|268=1|279=0|269=2|55=BBVA|270=11|10=250|