8=FIX.4.4|9=77|35=A|34=1|49=Initiator|52=20191218-13:02:08.184|56=Acceptor|98=0|108=6|141=Y|10=235|8=FIX.4.4|9=109|35=V|34=2|49=Initiator|52=20191218-13:02:13.226|56=Acceptor|262=Test 1|263=1|264=0|146=1|55=BBVA|267=1|269=2|10=214|8=FIX.4.4|9=60|35=0|34=3|49=Initiator|52=20191218-13:02:20.176|56=Acceptor|10=182|8=FIX.4.4|9=60|35=0|34=4|49=Initiator|52=20191218-13:02:26.179|56=Acceptor|10=192|8=FIX.4.4|9=60|35=0|34=5|49=Initiator|52=20191218-13:02:32.180|56=Acceptor|10=182|8=FIX.4.4|9=60|35=0|34=6|49=Initiator|52=20191218-13:02:38.180|56=Acceptor|10=189|