8=FIX.4.4|9=77|35=A|34=1|49=Acceptor|52=20191218-11:39:31.921|56=Initiator|98=0|108=6|141=Y|10=238|8=FIX.4.4|9=60|35=0|34=2|49=Acceptor|52=20191218-11:39:38.698|56=Initiator|10=207|8=FIX.4.4|9=60|35=0|34=3|49=Acceptor|52=20191218-11:39:44.700|56=Initiator|10=189|8=FIX.4.4|9=60|35=0|34=4|49=Acceptor|52=20191218-11:39:50.698|56=Initiator|10=203|8=FIX.4.4|9=60|35=0|34=5|49=Acceptor|52=20191218-11:39:56.698|56=Initiator|10=210|8=FIX.4.4|9=60|35=0|34=6|49=Acceptor|52=20191218-11:40:02.699|56=Initiator|10=195|8=FIX.4.4|9=60|35=0|34=7|49=Acceptor|52=20191218-11:40:08.699|56=Initiator|10=202|8=FIX.4.4|9=60|35=0|34=8|49=Acceptor|52=20191218-11:40:14.698|56=Initiator|10=199|8=FIX.4.4|9=60|35=0|34=9|49=Acceptor|52=20191218-11:40:20.699|56=Initiator|10=198|8=FIX.4.4|9=61|35=0|34=10|49=Acceptor|52=20191218-11:40:26.699|56=Initiator|10=245|8=FIX.4.4|9=61|35=0|34=11|49=Acceptor|52=20191218-11:40:32.699|56=Initiator|10=243|8=FIX.4.4|9=61|35=0|34=12|49=Acceptor|52=20191218-11:40:38.698|56=Initiator|10=249|8=FIX.4.4|9=61|35=0|34=13|49=Acceptor|52=20191218-11:40:44.698|56=Initiator|10=247|8=FIX.4.4|9=61|35=0|34=14|49=Acceptor|52=20191218-11:40:50.699|56=Initiator|10=246|8=FIX.4.4|9=61|35=0|34=15|49=Acceptor|52=20191218-11:40:56.700|56=Initiator|10=236|8=FIX.4.4|9=61|35=0|34=16|49=Acceptor|52=20191218-11:41:02.698|56=Initiator|10=245|8=FIX.4.4|9=61|35=0|34=17|49=Acceptor|52=20191218-11:41:08.699|56=Initiator|10=253|8=FIX.4.4|9=61|35=0|34=18|49=Acceptor|52=20191218-11:41:14.699|56=Initiator|10=251|8=FIX.4.4|9=61|35=0|34=19|49=Acceptor|52=20191218-11:41:20.717|56=Initiator|10=240|8=FIX.4.4|9=61|35=0|34=20|49=Acceptor|52=20191218-11:41:27.699|56=Initiator|10=248|8=FIX.4.4|9=61|35=0|34=21|49=Acceptor|52=20191218-11:41:33.705|56=Initiator|10=234|8=FIX.4.4|9=61|35=0|34=22|49=Acceptor|52=20191218-11:41:39.699|56=Initiator|10=253|8=FIX.4.4|9=61|35=0|34=23|49=Acceptor|52=20191218-11:41:45.698|56=Initiator|10=250|8=FIX.4.4|9=61|35=0|34=24|49=Acceptor|52=20191218-11:41:51.698|56=Initiator|10=248|8=FIX.4.4|9=61|35=0|34=25|49=Acceptor|52=20191218-11:41:57.698|56=Initiator|10=255|8=FIX.4.4|9=61|35=0|34=26|49=Acceptor|52=20191218-11:42:03.699|56=Initiator|10=249|8=FIX.4.4|9=61|35=0|34=27|49=Acceptor|52=20191218-11:42:09.698|56=Initiator|10=255|8=FIX.4.4|9=61|35=0|34=28|49=Acceptor|52=20191218-11:42:15.698|56=Initiator|10=253|8=FIX.4.4|9=61|35=0|34=29|49=Acceptor|52=20191218-11:42:21.698|56=Initiator|10=251|8=FIX.4.4|9=61|35=0|34=30|49=Acceptor|52=20191218-11:42:27.698|56=Initiator|10=249|8=FIX.4.4|9=61|35=0|34=31|49=Acceptor|52=20191218-11:42:33.699|56=Initiator|10=248|8=FIX.4.4|9=61|35=0|34=32|49=Acceptor|52=20191218-11:42:39.698|56=Initiator|10=254|8=FIX.4.4|9=61|35=0|34=33|49=Acceptor|52=20191218-11:42:45.699|56=Initiator|10=253|8=FIX.4.4|9=61|35=0|34=34|49=Acceptor|52=20191218-11:42:51.699|56=Initiator|10=251|8=FIX.4.4|9=61|35=0|34=35|49=Acceptor|52=20191218-11:42:57.699|56=Initiator|10=002|8=FIX.4.4|9=61|35=0|34=36|49=Acceptor|52=20191218-11:43:03.699|56=Initiator|10=251|8=FIX.4.4|9=61|35=0|34=37|49=Acceptor|52=20191218-11:43:09.698|56=Initiator|10=001|8=FIX.4.4|9=61|35=0|34=38|49=Acceptor|52=20191218-11:43:15.698|56=Initiator|10=255|8=FIX.4.4|9=61|35=0|34=39|49=Acceptor|52=20191218-11:43:21.699|56=Initiator|10=254|8=FIX.4.4|9=61|35=0|34=40|49=Acceptor|52=20191218-11:43:27.698|56=Initiator|10=251|8=FIX.4.4|9=61|35=0|34=41|49=Acceptor|52=20191218-11:43:33.699|56=Initiator|10=250|8=FIX.4.4|9=61|35=0|34=42|49=Acceptor|52=20191218-11:43:39.698|56=Initiator|10=000|8=FIX.4.4|9=61|35=0|34=43|49=Acceptor|52=20191218-11:43:45.699|56=Initiator|10=255|8=FIX.4.4|9=61|35=0|34=44|49=Acceptor|52=20191218-11:43:51.698|56=Initiator|10=252|8=FIX.4.4|9=61|35=0|34=45|49=Acceptor|52=20191218-11:43:57.698|56=Initiator|10=003|8=FIX.4.4|9=61|35=0|34=46|49=Acceptor|52=20191218-11:44:03.698|56=Initiator|10=252|8=FIX.4.4|9=61|35=0|34=47|49=Acceptor|52=20191218-11:44:09.698|56=Initiator|10=003|8=FIX.4.4|9=61|35=0|34=48|49=Acceptor|52=20191218-11:44:15.698|56=Initiator|10=001|8=FIX.4.4|9=61|35=0|34=49|49=Acceptor|52=20191218-11:44:21.699|56=Initiator|10=000|8=FIX.4.4|9=61|35=0|34=50|49=Acceptor|52=20191218-11:44:27.699|56=Initiator|10=254|8=FIX.4.4|9=61|35=0|34=51|49=Acceptor|52=20191218-11:44:33.698|56=Initiator|10=251|8=FIX.4.4|9=61|35=0|34=52|49=Acceptor|52=20191218-11:44:39.698|56=Initiator|10=002|8=FIX.4.4|9=61|35=0|34=53|49=Acceptor|52=20191218-11:44:45.698|56=Initiator|10=000|8=FIX.4.4|9=61|35=0|34=54|49=Acceptor|52=20191218-11:44:51.698|56=Initiator|10=254|8=FIX.4.4|9=61|35=0|34=55|49=Acceptor|52=20191218-11:44:57.699|56=Initiator|10=006|8=FIX.4.4|9=61|35=0|34=56|49=Acceptor|52=20191218-11:45:03.699|56=Initiator|10=255|8=FIX.4.4|9=61|35=0|34=57|49=Acceptor|52=20191218-11:45:09.699|56=Initiator|10=006|8=FIX.4.4|9=61|35=0|34=58|49=Acceptor|52=20191218-11:45:15.698|56=Initiator|10=003|8=FIX.4.4|9=61|35=0|34=59|49=Acceptor|52=20191218-11:45:21.698|56=Initiator|10=001|8=FIX.4.4|9=61|35=0|34=60|49=Acceptor|52=20191218-11:45:27.699|56=Initiator|10=000|8=FIX.4.4|9=61|35=0|34=61|49=Acceptor|52=20191218-11:45:33.700|56=Initiator|10=237|8=FIX.4.4|9=61|35=0|34=62|49=Acceptor|52=20191218-11:45:39.699|56=Initiator|10=005|8=FIX.4.4|9=61|35=0|34=63|49=Acceptor|52=20191218-11:45:45.698|56=Initiator|10=002|8=FIX.4.4|9=61|35=0|34=64|49=Acceptor|52=20191218-11:45:51.698|56=Initiator|10=000|8=FIX.4.4|9=61|35=0|34=65|49=Acceptor|52=20191218-11:45:57.699|56=Initiator|10=008|8=FIX.4.4|9=61|35=0|34=66|49=Acceptor|52=20191218-11:46:03.700|56=Initiator|10=240|8=FIX.4.4|9=61|35=0|34=67|49=Acceptor|52=20191218-11:46:09.699|56=Initiator|10=008|8=FIX.4.4|9=61|35=0|34=68|49=Acceptor|52=20191218-11:46:15.698|56=Initiator|10=005|8=FIX.4.4|9=61|35=0|34=69|49=Acceptor|52=20191218-11:46:21.698|56=Initiator|10=003|8=FIX.4.4|9=61|35=0|34=70|49=Acceptor|52=20191218-11:46:27.698|56=Initiator|10=001|8=FIX.4.4|9=61|35=0|34=71|49=Acceptor|52=20191218-11:46:33.699|56=Initiator|10=000|8=FIX.4.4|9=61|35=0|34=72|49=Acceptor|52=20191218-11:46:39.698|56=Initiator|10=006|8=FIX.4.4|9=61|35=0|34=73|49=Acceptor|52=20191218-11:46:45.698|56=Initiator|10=004|8=FIX.4.4|9=61|35=0|34=74|49=Acceptor|52=20191218-11:46:51.698|56=Initiator|10=002|8=FIX.4.4|9=61|35=0|34=75|49=Acceptor|52=20191218-11:46:57.698|56=Initiator|10=009|8=FIX.4.4|9=61|35=0|34=76|49=Acceptor|52=20191218-11:47:03.698|56=Initiator|10=002|8=FIX.4.4|9=61|35=0|34=77|49=Acceptor|52=20191218-11:47:09.699|56=Initiator|10=010|8=FIX.4.4|9=61|35=0|34=78|49=Acceptor|52=20191218-11:47:15.698|56=Initiator|10=007|8=FIX.4.4|9=61|35=0|34=79|49=Acceptor|52=20191218-11:47:21.699|56=Initiator|10=006|8=FIX.4.4|9=61|35=0|34=80|49=Acceptor|52=20191218-11:47:27.699|56=Initiator|10=004|8=FIX.4.4|9=61|35=0|34=81|49=Acceptor|52=20191218-11:47:33.699|56=Initiator|10=002|8=FIX.4.4|9=61|35=0|34=82|49=Acceptor|52=20191218-11:47:39.699|56=Initiator|10=009|8=FIX.4.4|9=61|35=0|34=83|49=Acceptor|52=20191218-11:47:45.699|56=Initiator|10=007|8=FIX.4.4|9=61|35=0|34=84|49=Acceptor|52=20191218-11:47:51.698|56=Initiator|10=004|8=FIX.4.4|9=61|35=0|34=85|49=Acceptor|52=20191218-11:47:57.698|56=Initiator|10=011|8=FIX.4.4|9=61|35=0|34=86|49=Acceptor|52=20191218-11:48:03.699|56=Initiator|10=005|8=FIX.4.4|9=61|35=0|34=87|49=Acceptor|52=20191218-11:48:09.699|56=Initiator|10=012|8=FIX.4.4|9=61|35=0|34=88|49=Acceptor|52=20191218-11:48:15.699|56=Initiator|10=010|8=FIX.4.4|9=61|35=0|34=89|49=Acceptor|52=20191218-11:48:21.698|56=Initiator|10=007|8=FIX.4.4|9=61|35=0|34=90|49=Acceptor|52=20191218-11:48:27.698|56=Initiator|10=005|8=FIX.4.4|9=61|35=0|34=91|49=Acceptor|52=20191218-11:48:33.698|56=Initiator|10=003|8=FIX.4.4|9=61|35=0|34=92|49=Acceptor|52=20191218-11:48:39.698|56=Initiator|10=010|8=FIX.4.4|9=61|35=0|34=93|49=Acceptor|52=20191218-11:48:45.699|56=Initiator|10=009|8=FIX.4.4|9=61|35=0|34=94|49=Acceptor|52=20191218-11:48:51.699|56=Initiator|10=007|8=FIX.4.4|9=61|35=0|34=95|49=Acceptor|52=20191218-11:48:57.699|56=Initiator|10=014|8=FIX.4.4|9=61|35=0|34=96|49=Acceptor|52=20191218-11:49:03.699|56=Initiator|10=007|8=FIX.4.4|9=61|35=0|34=97|49=Acceptor|52=20191218-11:49:09.698|56=Initiator|10=013|8=FIX.4.4|9=61|35=0|34=98|49=Acceptor|52=20191218-11:49:15.698|56=Initiator|10=011|8=FIX.4.4|9=61|35=0|34=99|49=Acceptor|52=20191218-11:49:21.698|56=Initiator|10=009|8=FIX.4.4|9=62|35=0|34=100|49=Acceptor|52=20191218-11:49:27.698|56=Initiator|10=047|8=FIX.4.4|9=62|35=0|34=101|49=Acceptor|52=20191218-11:49:33.698|56=Initiator|10=045|8=FIX.4.4|9=62|35=0|34=102|49=Acceptor|52=20191218-11:49:39.698|56=Initiator|10=052|8=FIX.4.4|9=62|35=0|34=103|49=Acceptor|52=20191218-11:49:45.698|56=Initiator|10=050|8=FIX.4.4|9=62|35=0|34=104|49=Acceptor|52=20191218-11:49:51.698|56=Initiator|10=048|8=FIX.4.4|9=62|35=0|34=105|49=Acceptor|52=20191218-11:49:57.698|56=Initiator|10=055|8=FIX.4.4|9=62|35=0|34=106|49=Acceptor|52=20191218-11:50:03.699|56=Initiator|10=040|8=FIX.4.4|9=62|35=0|34=107|49=Acceptor|52=20191218-11:50:09.699|56=Initiator|10=047|8=FIX.4.4|9=62|35=0|34=108|49=Acceptor|52=20191218-11:50:15.699|56=Initiator|10=045|8=FIX.4.4|9=62|35=0|34=109|49=Acceptor|52=20191218-11:50:21.698|56=Initiator|10=042|8=FIX.4.4|9=62|35=0|34=110|49=Acceptor|52=20191218-11:50:27.698|56=Initiator|10=040|8=FIX.4.4|9=62|35=0|34=111|49=Acceptor|52=20191218-11:50:33.699|56=Initiator|10=039|8=FIX.4.4|9=62|35=0|34=112|49=Acceptor|52=20191218-11:50:39.698|56=Initiator|10=045|8=FIX.4.4|9=62|35=0|34=113|49=Acceptor|52=20191218-11:50:45.698|56=Initiator|10=043|8=FIX.4.4|9=62|35=0|34=114|49=Acceptor|52=20191218-11:50:51.699|56=Initiator|10=042|8=FIX.4.4|9=62|35=0|34=115|49=Acceptor|52=20191218-11:50:57.699|56=Initiator|10=049|8=FIX.4.4|9=62|35=0|34=116|49=Acceptor|52=20191218-11:51:03.699|56=Initiator|10=042|8=FIX.4.4|9=62|35=0|34=117|49=Acceptor|52=20191218-11:51:09.698|56=Initiator|10=048|8=FIX.4.4|9=62|35=0|34=118|49=Acceptor|52=20191218-11:51:15.698|56=Initiator|10=046|8=FIX.4.4|9=62|35=0|34=119|49=Acceptor|52=20191218-11:51:21.698|56=Initiator|10=044|8=FIX.4.4|9=62|35=0|34=120|49=Acceptor|52=20191218-11:51:27.699|56=Initiator|10=043|8=FIX.4.4|9=62|35=0|34=121|49=Acceptor|52=20191218-11:51:33.699|56=Initiator|10=041|8=FIX.4.4|9=62|35=0|34=122|49=Acceptor|52=20191218-11:51:39.699|56=Initiator|10=048|8=FIX.4.4|9=62|35=0|34=123|49=Acceptor|52=20191218-11:51:45.699|56=Initiator|10=046|8=FIX.4.4|9=62|35=0|34=124|49=Acceptor|52=20191218-11:51:51.699|56=Initiator|10=044|8=FIX.4.4|9=62|35=0|34=125|49=Acceptor|52=20191218-11:51:57.699|56=Initiator|10=051|8=FIX.4.4|9=62|35=0|34=126|49=Acceptor|52=20191218-11:52:03.699|56=Initiator|10=044|8=FIX.4.4|9=62|35=0|34=127|49=Acceptor|52=20191218-11:52:09.699|56=Initiator|10=051|8=FIX.4.4|9=62|35=0|34=128|49=Acceptor|52=20191218-11:52:15.699|56=Initiator|10=049|8=FIX.4.4|9=62|35=0|34=129|49=Acceptor|52=20191218-11:52:21.699|56=Initiator|10=047|8=FIX.4.4|9=62|35=0|34=130|49=Acceptor|52=20191218-11:52:27.698|56=Initiator|10=044|8=FIX.4.4|9=62|35=0|34=131|49=Acceptor|52=20191218-11:52:33.698|56=Initiator|10=042|8=FIX.4.4|9=62|35=0|34=132|49=Acceptor|52=20191218-11:52:39.699|56=Initiator|10=050|8=FIX.4.4|9=62|35=0|34=133|49=Acceptor|52=20191218-11:52:45.698|56=Initiator|10=047|8=FIX.4.4|9=62|35=0|34=134|49=Acceptor|52=20191218-11:52:51.699|56=Initiator|10=046|8=FIX.4.4|9=62|35=0|34=135|49=Acceptor|52=20191218-11:52:57.699|56=Initiator|10=053|8=FIX.4.4|9=62|35=0|34=136|49=Acceptor|52=20191218-11:53:03.698|56=Initiator|10=045|8=FIX.4.4|9=62|35=0|34=137|49=Acceptor|52=20191218-11:53:09.698|56=Initiator|10=052|8=FIX.4.4|9=62|35=0|34=138|49=Acceptor|52=20191218-11:53:15.699|56=Initiator|10=051|8=FIX.4.4|9=62|35=0|34=139|49=Acceptor|52=20191218-11:53:21.698|56=Initiator|10=048|8=FIX.4.4|9=62|35=0|34=140|49=Acceptor|52=20191218-11:53:27.699|56=Initiator|10=047|8=FIX.4.4|9=62|35=0|34=141|49=Acceptor|52=20191218-11:53:33.699|56=Initiator|10=045|8=FIX.4.4|9=62|35=0|34=142|49=Acceptor|52=20191218-11:53:39.699|56=Initiator|10=052|8=FIX.4.4|9=62|35=0|34=143|49=Acceptor|52=20191218-11:53:45.698|56=Initiator|10=049|8=FIX.4.4|9=62|35=0|34=144|49=Acceptor|52=20191218-11:53:51.698|56=Initiator|10=047|8=FIX.4.4|9=62|35=0|34=145|49=Acceptor|52=20191218-11:53:57.698|56=Initiator|10=054|8=FIX.4.4|9=62|35=0|34=146|49=Acceptor|52=20191218-11:54:03.698|56=Initiator|10=047|8=FIX.4.4|9=62|35=0|34=147|49=Acceptor|52=20191218-11:54:09.699|56=Initiator|10=055|8=FIX.4.4|9=62|35=0|34=148|49=Acceptor|52=20191218-11:54:15.699|56=Initiator|10=053|8=FIX.4.4|9=62|35=0|34=149|49=Acceptor|52=20191218-11:54:21.698|56=Initiator|10=050|8=FIX.4.4|9=62|35=0|34=150|49=Acceptor|52=20191218-11:54:27.699|56=Initiator|10=049|8=FIX.4.4|9=62|35=0|34=151|49=Acceptor|52=20191218-11:54:33.698|56=Initiator|10=046|8=FIX.4.4|9=62|35=0|34=152|49=Acceptor|52=20191218-11:54:39.699|56=Initiator|10=054|8=FIX.4.4|9=62|35=0|34=153|49=Acceptor|52=20191218-11:54:45.699|56=Initiator|10=052|8=FIX.4.4|9=62|35=0|34=154|49=Acceptor|52=20191218-11:54:51.698|56=Initiator|10=049|8=FIX.4.4|9=62|35=0|34=155|49=Acceptor|52=20191218-11:54:57.698|56=Initiator|10=056|8=FIX.4.4|9=62|35=0|34=156|49=Acceptor|52=20191218-11:55:03.699|56=Initiator|10=050|8=FIX.4.4|9=62|35=0|34=157|49=Acceptor|52=20191218-11:55:09.699|56=Initiator|10=057|8=FIX.4.4|9=62|35=0|34=158|49=Acceptor|52=20191218-11:55:15.699|56=Initiator|10=055|8=FIX.4.4|9=62|35=0|34=159|49=Acceptor|52=20191218-11:55:21.698|56=Initiator|10=052|8=FIX.4.4|9=62|35=0|34=160|49=Acceptor|52=20191218-11:55:27.698|56=Initiator|10=050|8=FIX.4.4|9=62|35=0|34=161|49=Acceptor|52=20191218-11:55:33.699|56=Initiator|10=049|8=FIX.4.4|9=62|35=0|34=162|49=Acceptor|52=20191218-11:55:39.699|56=Initiator|10=056|8=FIX.4.4|9=62|35=0|34=163|49=Acceptor|52=20191218-11:55:45.698|56=Initiator|10=053|8=FIX.4.4|9=62|35=0|34=164|49=Acceptor|52=20191218-11:55:51.698|56=Initiator|10=051|8=FIX.4.4|9=62|35=0|34=165|49=Acceptor|52=20191218-11:55:57.699|56=Initiator|10=059|8=FIX.4.4|9=62|35=0|34=166|49=Acceptor|52=20191218-11:56:03.698|56=Initiator|10=051|8=FIX.4.4|9=62|35=0|34=167|49=Acceptor|52=20191218-11:56:09.698|56=Initiator|10=058|8=FIX.4.4|9=62|35=0|34=168|49=Acceptor|52=20191218-11:56:15.698|56=Initiator|10=056|8=FIX.4.4|9=62|35=0|34=169|49=Acceptor|52=20191218-11:56:21.699|56=Initiator|10=055|8=FIX.4.4|9=62|35=0|34=170|49=Acceptor|52=20191218-11:56:27.699|56=Initiator|10=053|8=FIX.4.4|9=62|35=0|34=171|49=Acceptor|52=20191218-11:56:33.700|56=Initiator|10=034|8=FIX.4.4|9=62|35=0|34=172|49=Acceptor|52=20191218-11:56:39.698|56=Initiator|10=057|8=FIX.4.4|9=62|35=0|34=173|49=Acceptor|52=20191218-11:56:45.698|56=Initiator|10=055|8=FIX.4.4|9=62|35=0|34=174|49=Acceptor|52=20191218-11:56:51.699|56=Initiator|10=054|8=FIX.4.4|9=62|35=0|34=175|49=Acceptor|52=20191218-11:56:57.699|56=Initiator|10=061|8=FIX.4.4|9=62|35=0|34=176|49=Acceptor|52=20191218-11:57:03.699|56=Initiator|10=054|8=FIX.4.4|9=62|35=0|34=177|49=Acceptor|52=20191218-11:57:09.698|56=Initiator|10=060|8=FIX.4.4|9=62|35=0|34=178|49=Acceptor|52=20191218-11:57:15.699|56=Initiator|10=059|8=FIX.4.4|9=62|35=0|34=179|49=Acceptor|52=20191218-11:57:21.698|56=Initiator|10=056|8=FIX.4.4|9=62|35=0|34=180|49=Acceptor|52=20191218-11:57:27.700|56=Initiator|10=038|8=FIX.4.4|9=62|35=0|34=181|49=Acceptor|52=20191218-11:57:33.699|56=Initiator|10=053|8=FIX.4.4|9=62|35=0|34=182|49=Acceptor|52=20191218-11:57:39.699|56=Initiator|10=060|8=FIX.4.4|9=62|35=0|34=183|49=Acceptor|52=20191218-11:57:45.698|56=Initiator|10=057|8=FIX.4.4|9=62|35=0|34=184|49=Acceptor|52=20191218-11:57:51.698|56=Initiator|10=055|8=FIX.4.4|9=62|35=0|34=185|49=Acceptor|52=20191218-11:57:57.699|56=Initiator|10=063|8=FIX.4.4|9=62|35=0|34=186|49=Acceptor|52=20191218-11:58:03.699|56=Initiator|10=056|8=FIX.4.4|9=62|35=0|34=187|49=Acceptor|52=20191218-11:58:09.702|56=Initiator|10=048|8=FIX.4.4|9=62|35=0|34=188|49=Acceptor|52=20191218-11:58:15.699|56=Initiator|10=061|8=FIX.4.4|9=62|35=0|34=189|49=Acceptor|52=20191218-11:58:21.699|56=Initiator|10=059|8=FIX.4.4|9=62|35=0|34=190|49=Acceptor|52=20191218-11:58:27.699|56=Initiator|10=057|8=FIX.4.4|9=62|35=0|34=191|49=Acceptor|52=20191218-11:58:33.698|56=Initiator|10=054|8=FIX.4.4|9=62|35=0|34=192|49=Acceptor|52=20191218-11:58:39.698|56=Initiator|10=061|8=FIX.4.4|9=62|35=0|34=193|49=Acceptor|52=20191218-11:58:45.698|56=Initiator|10=059|8=FIX.4.4|9=62|35=0|34=194|49=Acceptor|52=20191218-11:58:51.699|56=Initiator|10=058|8=FIX.4.4|9=62|35=0|34=195|49=Acceptor|52=20191218-11:58:57.699|56=Initiator|10=065|8=FIX.4.4|9=62|35=0|34=196|49=Acceptor|52=20191218-11:59:03.698|56=Initiator|10=057|8=FIX.4.4|9=62|35=0|34=197|49=Acceptor|52=20191218-11:59:09.700|56=Initiator|10=048|8=FIX.4.4|9=62|35=0|34=198|49=Acceptor|52=20191218-11:59:15.698|56=Initiator|10=062|8=FIX.4.4|9=62|35=0|34=199|49=Acceptor|52=20191218-11:59:21.699|56=Initiator|10=061|8=FIX.4.4|9=62|35=0|34=200|49=Acceptor|52=20191218-11:59:27.699|56=Initiator|10=050|8=FIX.4.4|9=62|35=0|34=201|49=Acceptor|52=20191218-11:59:33.698|56=Initiator|10=047|8=FIX.4.4|9=62|35=0|34=202|49=Acceptor|52=20191218-11:59:39.710|56=Initiator|10=039|8=FIX.4.4|9=62|35=0|34=203|49=Acceptor|52=20191218-11:59:45.881|56=Initiator|10=046|8=FIX.4.4|9=62|35=0|34=204|49=Acceptor|52=20191218-11:59:51.882|56=Initiator|10=045|8=FIX.4.4|9=62|35=0|34=205|49=Acceptor|52=20191218-11:59:57.882|56=Initiator|10=052|8=FIX.4.4|9=62|35=0|34=206|49=Acceptor|52=20191218-12:00:03.882|56=Initiator|10=031|8=FIX.4.4|9=62|35=0|34=207|49=Acceptor|52=20191218-12:00:09.880|56=Initiator|10=036|8=FIX.4.4|9=62|35=0|34=208|49=Acceptor|52=20191218-12:00:15.881|56=Initiator|10=035|8=FIX.4.4|9=62|35=0|34=209|49=Acceptor|52=20191218-12:00:21.882|56=Initiator|10=034|8=FIX.4.4|9=62|35=0|34=210|49=Acceptor|52=20191218-12:00:28.018|56=Initiator|10=024|8=FIX.4.4|9=62|35=0|34=211|49=Acceptor|52=20191218-12:00:34.698|56=Initiator|10=036|8=FIX.4.4|9=62|35=0|34=212|49=Acceptor|52=20191218-12:00:40.698|56=Initiator|10=034|8=FIX.4.4|9=62|35=0|34=213|49=Acceptor|52=20191218-12:00:46.699|56=Initiator|10=042|8=FIX.4.4|9=62|35=0|34=214|49=Acceptor|52=20191218-12:00:52.698|56=Initiator|10=039|8=FIX.4.4|9=62|35=0|34=215|49=Acceptor|52=20191218-12:00:58.698|56=Initiator|10=046|8=FIX.4.4|9=62|35=0|34=216|49=Acceptor|52=20191218-12:01:04.698|56=Initiator|10=039|8=FIX.4.4|9=62|35=0|34=217|49=Acceptor|52=20191218-12:01:10.698|56=Initiator|10=037|8=FIX.4.4|9=62|35=0|34=218|49=Acceptor|52=20191218-12:01:16.699|56=Initiator|10=045|8=FIX.4.4|9=62|35=0|34=219|49=Acceptor|52=20191218-12:01:22.699|56=Initiator|10=043|8=FIX.4.4|9=62|35=0|34=220|49=Acceptor|52=20191218-12:01:28.699|56=Initiator|10=041|8=FIX.4.4|9=62|35=0|34=221|49=Acceptor|52=20191218-12:01:34.699|56=Initiator|10=039|8=FIX.4.4|9=62|35=0|34=222|49=Acceptor|52=20191218-12:01:40.698|56=Initiator|10=036|8=FIX.4.4|9=62|35=0|34=223|49=Acceptor|52=20191218-12:01:46.699|56=Initiator|10=044|8=FIX.4.4|9=62|35=0|34=224|49=Acceptor|52=20191218-12:01:52.698|56=Initiator|10=041|8=FIX.4.4|9=62|35=0|34=225|49=Acceptor|52=20191218-12:01:58.699|56=Initiator|10=049|8=FIX.4.4|9=62|35=0|34=226|49=Acceptor|52=20191218-12:02:04.698|56=Initiator|10=041|8=FIX.4.4|9=62|35=0|34=227|49=Acceptor|52=20191218-12:02:10.700|56=Initiator|10=023|