8=FIX.4.4|9=77|35=A|34=1|49=Initiator|52=20191217-23:28:21.421|56=Acceptor|98=0|108=6|141=Y|10=232|
8=FIX.4.4|9=77|35=A|34=1|49=Acceptor|52=20191217-23:28:21.526|56=Initiator|98=0|108=6|141=Y|10=238|
8=FIX.4.4|9=60|35=0|34=2|49=Acceptor|52=20191217-23:28:27.534|56=Initiator|10=194|
8=FIX.4.4|9=60|35=0|34=2|49=Initiator|52=20191217-23:28:27.588|56=Acceptor|10=203|
8=FIX.4.4|9=60|35=0|34=3|49=Acceptor|52=20191217-23:28:33.528|56=Initiator|10=195|
8=FIX.4.4|9=60|35=0|34=3|49=Initiator|52=20191217-23:28:33.610|56=Acceptor|10=187|
8=FIX.4.4|9=60|35=0|34=4|49=Acceptor|52=20191217-23:28:39.530|56=Initiator|10=195|
8=FIX.4.4|9=60|35=0|34=4|49=Initiator|52=20191217-23:28:40.403|56=Acceptor|10=186|
8=FIX.4.4|9=60|35=0|34=5|49=Acceptor|52=20191217-23:28:45.529|56=Initiator|10=201|
8=FIX.4.4|9=60|35=0|34=5|49=Initiator|52=20191217-23:28:46.404|56=Acceptor|10=194|
8=FIX.4.4|9=60|35=0|34=6|49=Acceptor|52=20191217-23:28:51.530|56=Initiator|10=191|
8=FIX.4.4|9=60|35=0|34=6|49=Initiator|52=20191217-23:28:52.402|56=Acceptor|10=190|
8=FIX.4.4|9=60|35=0|34=7|49=Acceptor|52=20191217-23:28:57.528|56=Initiator|10=205|
8=FIX.4.4|9=60|35=0|34=7|49=Initiator|52=20191217-23:28:58.403|56=Acceptor|10=198|
8=FIX.4.4|9=60|35=0|34=8|49=Acceptor|52=20191217-23:29:03.532|56=Initiator|10=193|
8=FIX.4.4|9=60|35=0|34=8|49=Initiator|52=20191217-23:29:04.401|56=Acceptor|10=189|
8=FIX.4.4|9=60|35=0|34=9|49=Acceptor|52=20191217-23:29:09.533|56=Initiator|10=201|
8=FIX.4.4|9=60|35=0|34=9|49=Initiator|52=20191217-23:29:10.402|56=Acceptor|10=188|
8=FIX.4.4|9=61|35=0|34=10|49=Acceptor|52=20191217-23:29:15.528|56=Initiator|10=243|
8=FIX.4.4|9=61|35=0|34=10|49=Initiator|52=20191217-23:29:16.404|56=Acceptor|10=237|
8=FIX.4.4|9=61|35=0|34=11|49=Acceptor|52=20191217-23:29:21.533|56=Initiator|10=237|
8=FIX.4.4|9=61|35=0|34=11|49=Initiator|52=20191217-23:29:22.403|56=Acceptor|10=234|
8=FIX.4.4|9=61|35=0|34=12|49=Acceptor|52=20191217-23:29:27.530|56=Initiator|10=241|
8=FIX.4.4|9=61|35=0|34=12|49=Initiator|52=20191217-23:29:28.403|56=Acceptor|10=241|
8=FIX.4.4|9=61|35=0|34=13|49=Acceptor|52=20191217-23:29:33.532|56=Initiator|10=241|
8=FIX.4.4|9=61|35=0|34=13|49=Initiator|52=20191217-23:29:34.401|56=Acceptor|10=237|
8=FIX.4.4|9=61|35=0|34=14|49=Acceptor|52=20191217-23:29:39.530|56=Initiator|10=246|
8=FIX.4.4|9=61|35=0|34=14|49=Initiator|52=20191217-23:29:40.404|56=Acceptor|10=238|
8=FIX.4.4|9=61|35=0|34=15|49=Acceptor|52=20191217-23:29:45.534|56=Initiator|10=248|
8=FIX.4.4|9=61|35=0|34=15|49=Initiator|52=20191217-23:29:46.405|56=Acceptor|10=246|
8=FIX.4.4|9=61|35=0|34=16|49=Acceptor|52=20191217-23:29:51.530|56=Initiator|10=242|
8=FIX.4.4|9=61|35=0|34=16|49=Initiator|52=20191217-23:29:52.401|56=Acceptor|10=240|
8=FIX.4.4|9=61|35=0|34=17|49=Acceptor|52=20191217-23:29:57.532|56=Initiator|10=251|
8=FIX.4.4|9=61|35=0|34=17|49=Initiator|52=20191217-23:29:58.403|56=Acceptor|10=249|
8=FIX.4.4|9=61|35=0|34=18|49=Acceptor|52=20191217-23:30:03.533|56=Initiator|10=236|
8=FIX.4.4|9=61|35=0|34=18|49=Initiator|52=20191217-23:30:04.404|56=Acceptor|10=234|
8=FIX.4.4|9=61|35=0|34=19|49=Acceptor|52=20191217-23:30:09.528|56=Initiator|10=247|
8=FIX.4.4|9=61|35=0|34=19|49=Initiator|52=20191217-23:30:10.402|56=Acceptor|10=230|
8=FIX.4.4|9=61|35=0|34=20|49=Acceptor|52=20191217-23:30:15.529|56=Initiator|10=237|
8=FIX.4.4|9=61|35=0|34=20|49=Initiator|52=20191217-23:30:16.403|56=Acceptor|10=229|
8=FIX.4.4|9=61|35=0|34=21|49=Acceptor|52=20191217-23:30:21.530|56=Initiator|10=227|
8=FIX.4.4|9=61|35=0|34=21|49=Initiator|52=20191217-23:30:22.401|56=Acceptor|10=225|
8=FIX.4.4|9=61|35=0|34=22|49=Acceptor|52=20191217-23:30:27.529|56=Initiator|10=242|
8=FIX.4.4|9=61|35=0|34=22|49=Initiator|52=20191217-23:30:28.401|56=Acceptor|10=232|
8=FIX.4.4|9=61|35=0|34=23|49=Acceptor|52=20191217-23:30:33.528|56=Initiator|10=239|
8=FIX.4.4|9=61|35=0|34=23|49=Initiator|52=20191217-23:30:34.403|56=Acceptor|10=232|
8=FIX.4.4|9=61|35=0|34=24|49=Acceptor|52=20191217-23:30:39.528|56=Initiator|10=246|
8=FIX.4.4|9=61|35=0|34=24|49=Initiator|52=20191217-23:30:40.401|56=Acceptor|10=228|
8=FIX.4.4|9=61|35=0|34=25|49=Acceptor|52=20191217-23:30:45.529|56=Initiator|10=245|
8=FIX.4.4|9=61|35=0|34=25|49=Initiator|52=20191217-23:30:46.402|56=Acceptor|10=236|
8=FIX.4.4|9=61|35=0|34=26|49=Acceptor|52=20191217-23:30:51.528|56=Initiator|10=242|
8=FIX.4.4|9=61|35=0|34=26|49=Initiator|52=20191217-23:30:52.403|56=Acceptor|10=235|
8=FIX.4.4|9=61|35=0|34=27|49=Acceptor|52=20191217-23:30:57.528|56=Initiator|10=249|
8=FIX.4.4|9=61|35=0|34=27|49=Initiator|52=20191217-23:30:58.403|56=Acceptor|10=242|
8=FIX.4.4|9=61|35=0|34=28|49=Acceptor|52=20191217-23:31:03.528|56=Initiator|10=242|
8=FIX.4.4|9=61|35=0|34=28|49=Initiator|52=20191217-23:31:04.404|56=Acceptor|10=236|
8=FIX.4.4|9=61|35=0|34=29|49=Acceptor|52=20191217-23:31:09.528|56=Initiator|10=249|
8=FIX.4.4|9=61|35=0|34=29|49=Initiator|52=20191217-23:31:10.403|56=Acceptor|10=233|
8=FIX.4.4|9=61|35=0|34=30|49=Acceptor|52=20191217-23:31:15.532|56=Initiator|10=233|
8=FIX.4.4|9=61|35=0|34=30|49=Initiator|52=20191217-23:31:16.401|56=Acceptor|10=229|
8=FIX.4.4|9=61|35=0|34=31|49=Acceptor|52=20191217-23:31:21.530|56=Initiator|10=229|
8=FIX.4.4|9=61|35=0|34=31|49=Initiator|52=20191217-23:31:22.403|56=Acceptor|10=229|
8=FIX.4.4|9=61|35=0|34=32|49=Acceptor|52=20191217-23:31:27.533|56=Initiator|10=239|
8=FIX.4.4|9=61|35=0|34=32|49=Initiator|52=20191217-23:31:28.402|56=Acceptor|10=235|
8=FIX.4.4|9=61|35=0|34=33|49=Acceptor|52=20191217-23:31:33.532|56=Initiator|10=236|
8=FIX.4.4|9=61|35=0|34=33|49=Initiator|52=20191217-23:31:34.404|56=Acceptor|10=235|
8=FIX.4.4|9=61|35=0|34=34|49=Acceptor|52=20191217-23:31:39.533|56=Initiator|10=244|
8=FIX.4.4|9=61|35=0|34=34|49=Initiator|52=20191217-23:31:40.403|56=Acceptor|10=232|
8=FIX.4.4|9=61|35=0|34=35|49=Acceptor|52=20191217-23:31:45.529|56=Initiator|10=247|
8=FIX.4.4|9=61|35=0|34=35|49=Initiator|52=20191217-23:31:46.401|56=Acceptor|10=237|
8=FIX.4.4|9=61|35=0|34=36|49=Acceptor|52=20191217-23:31:51.528|56=Initiator|10=244|
8=FIX.4.4|9=61|35=0|34=36|49=Initiator|52=20191217-23:31:52.402|56=Acceptor|10=236|
8=FIX.4.4|9=61|35=0|34=37|49=Acceptor|52=20191217-23:31:57.533|56=Initiator|10=247|
8=FIX.4.4|9=61|35=0|34=37|49=Initiator|52=20191217-23:31:58.404|56=Acceptor|10=245|
8=FIX.4.4|9=61|35=0|34=38|49=Acceptor|52=20191217-23:32:03.529|56=Initiator|10=245|
8=FIX.4.4|9=61|35=0|34=38|49=Initiator|52=20191217-23:32:04.402|56=Acceptor|10=236|
8=FIX.4.4|9=61|35=0|34=39|49=Acceptor|52=20191217-23:32:09.528|56=Initiator|10=251|
8=FIX.4.4|9=61|35=0|34=39|49=Initiator|52=20191217-23:32:10.404|56=Acceptor|10=236|
8=FIX.4.4|9=61|35=0|34=40|49=Acceptor|52=20191217-23:32:15.534|56=Initiator|10=237|
8=FIX.4.4|9=61|35=0|34=40|49=Initiator|52=20191217-23:32:16.403|56=Acceptor|10=233|
8=FIX.4.4|9=61|35=0|34=41|49=Acceptor|52=20191217-23:32:21.533|56=Initiator|10=234|
8=FIX.4.4|9=61|35=0|34=41|49=Initiator|52=20191217-23:32:22.403|56=Acceptor|10=231|
8=FIX.4.4|9=61|35=0|34=42|49=Acceptor|52=20191217-23:32:27.533|56=Initiator|10=241|
8=FIX.4.4|9=61|35=0|34=42|49=Initiator|52=20191217-23:32:28.402|56=Acceptor|10=237|
8=FIX.4.4|9=61|35=0|34=43|49=Acceptor|52=20191217-23:32:33.532|56=Initiator|10=238|
8=FIX.4.4|9=61|35=0|34=43|49=Initiator|52=20191217-23:32:34.404|56=Acceptor|10=237|
8=FIX.4.4|9=61|35=0|34=44|49=Acceptor|52=20191217-23:32:39.529|56=Initiator|10=251|
8=FIX.4.4|9=61|35=0|34=44|49=Initiator|52=20191217-23:32:40.403|56=Acceptor|10=234|
8=FIX.4.4|9=61|35=0|34=45|49=Acceptor|52=20191217-23:32:45.530|56=Initiator|10=241|
8=FIX.4.4|9=61|35=0|34=45|49=Initiator|52=20191217-23:32:46.402|56=Acceptor|10=240|
8=FIX.4.4|9=61|35=0|34=46|49=Acceptor|52=20191217-23:32:51.528|56=Initiator|10=246|
8=FIX.4.4|9=61|35=0|34=46|49=Initiator|52=20191217-23:32:52.401|56=Acceptor|10=237|
8=FIX.4.4|9=61|35=0|34=47|49=Acceptor|52=20191217-23:32:57.533|56=Initiator|10=249|
8=FIX.4.4|9=61|35=0|34=47|49=Initiator|52=20191217-23:32:58.405|56=Acceptor|10=248|
8=FIX.4.4|9=61|35=0|34=48|49=Acceptor|52=20191217-23:33:03.532|56=Initiator|10=241|
8=FIX.4.4|9=61|35=0|34=48|49=Initiator|52=20191217-23:33:04.401|56=Acceptor|10=237|
8=FIX.4.4|9=61|35=0|34=49|49=Acceptor|52=20191217-23:33:09.532|56=Initiator|10=248|
8=FIX.4.4|9=61|35=0|34=49|49=Initiator|52=20191217-23:33:10.402|56=Acceptor|10=236|
8=FIX.4.4|9=61|35=0|34=50|49=Acceptor|52=20191217-23:33:15.528|56=Initiator|10=242|
8=FIX.4.4|9=61|35=0|34=50|49=Initiator|52=20191217-23:33:16.401|56=Acceptor|10=233|
8=FIX.4.4|9=61|35=0|34=51|49=Acceptor|52=20191217-23:33:21.527|56=Initiator|10=239|
8=FIX.4.4|9=61|35=0|34=51|49=Initiator|52=20191217-23:33:22.404|56=Acceptor|10=234|
8=FIX.4.4|9=61|35=0|34=52|49=Acceptor|52=20191217-23:33:27.529|56=Initiator|10=248|
8=FIX.4.4|9=61|35=0|34=52|49=Initiator|52=20191217-23:33:28.402|56=Acceptor|10=239|
8=FIX.4.4|9=61|35=0|34=53|49=Acceptor|52=20191217-23:33:33.530|56=Initiator|10=238|
8=FIX.4.4|9=61|35=0|34=53|49=Initiator|52=20191217-23:33:34.401|56=Acceptor|10=236|
8=FIX.4.4|9=61|35=0|34=54|49=Acceptor|52=20191217-23:33:39.529|56=Initiator|10=253|
8=FIX.4.4|9=61|35=0|34=54|49=Initiator|52=20191217-23:33:40.402|56=Acceptor|10=235|
8=FIX.4.4|9=61|35=0|34=55|49=Acceptor|52=20191217-23:33:45.528|56=Initiator|10=250|
8=FIX.4.4|9=61|35=0|34=55|49=Initiator|52=20191217-23:33:46.401|56=Acceptor|10=241|
8=FIX.4.4|9=61|35=0|34=56|49=Acceptor|52=20191217-23:33:51.529|56=Initiator|10=249|
8=FIX.4.4|9=61|35=0|34=56|49=Initiator|52=20191217-23:33:52.401|56=Acceptor|10=239|
8=FIX.4.4|9=61|35=0|34=57|49=Acceptor|52=20191217-23:33:57.528|56=Initiator|10=255|
8=FIX.4.4|9=61|35=0|34=57|49=Initiator|52=20191217-23:33:58.402|56=Acceptor|10=247|
8=FIX.4.4|9=61|35=0|34=58|49=Acceptor|52=20191217-23:34:03.533|56=Initiator|10=244|
8=FIX.4.4|9=61|35=0|34=58|49=Initiator|52=20191217-23:34:04.403|56=Acceptor|10=241|
8=FIX.4.4|9=61|35=0|34=59|49=Acceptor|52=20191217-23:34:09.530|56=Initiator|10=248|
8=FIX.4.4|9=61|35=0|34=59|49=Initiator|52=20191217-23:34:10.402|56=Acceptor|10=238|
8=FIX.4.4|9=61|35=0|34=60|49=Acceptor|52=20191217-23:34:15.528|56=Initiator|10=244|
8=FIX.4.4|9=61|35=0|34=60|49=Initiator|52=20191217-23:34:16.404|56=Acceptor|10=238|
8=FIX.4.4|9=61|35=0|34=61|49=Acceptor|52=20191217-23:34:21.529|56=Initiator|10=243|
8=FIX.4.4|9=61|35=0|34=61|49=Initiator|52=20191217-23:34:22.402|56=Acceptor|10=234|
8=FIX.4.4|9=61|35=0|34=62|49=Acceptor|52=20191217-23:34:27.530|56=Initiator|10=242|
8=FIX.4.4|9=61|35=0|34=62|49=Initiator|52=20191217-23:34:28.402|56=Acceptor|10=241|
8=FIX.4.4|9=61|35=0|34=63|49=Acceptor|52=20191217-23:34:33.529|56=Initiator|10=248|
8=FIX.4.4|9=61|35=0|34=63|49=Initiator|52=20191217-23:34:34.401|56=Acceptor|10=238|
8=FIX.4.4|9=61|35=0|34=64|49=Acceptor|52=20191217-23:34:39.528|56=Initiator|10=254|
8=FIX.4.4|9=61|35=0|34=64|49=Initiator|52=20191217-23:34:40.401|56=Acceptor|10=236|
8=FIX.4.4|9=61|35=0|34=65|49=Acceptor|52=20191217-23:34:45.533|56=Initiator|10=248|
8=FIX.4.4|9=61|35=0|34=65|49=Initiator|52=20191217-23:34:46.401|56=Acceptor|10=243|
8=FIX.4.4|9=61|35=0|34=66|49=Acceptor|52=20191217-23:34:51.533|56=Initiator|10=246|
8=FIX.4.4|9=61|35=0|34=66|49=Initiator|52=20191217-23:34:52.402|56=Acceptor|10=242|
8=FIX.4.4|9=61|35=0|34=67|49=Acceptor|52=20191217-23:34:57.528|56=Initiator|10=001|
8=FIX.4.4|9=61|35=0|34=67|49=Initiator|52=20191217-23:34:58.403|56=Acceptor|10=250|
8=FIX.4.4|9=61|35=0|34=68|49=Acceptor|52=20191217-23:35:03.529|56=Initiator|10=251|
8=FIX.4.4|9=61|35=0|34=68|49=Initiator|52=20191217-23:35:04.402|56=Acceptor|10=242|
8=FIX.4.4|9=61|35=0|34=69|49=Acceptor|52=20191217-23:35:09.529|56=Initiator|10=002|
8=FIX.4.4|9=61|35=0|34=69|49=Initiator|52=20191217-23:35:10.403|56=Acceptor|10=241|
8=FIX.4.4|9=61|35=0|34=70|49=Acceptor|52=20191217-23:35:15.529|56=Initiator|10=247|
8=FIX.4.4|9=61|35=0|34=70|49=Initiator|52=20191217-23:35:16.403|56=Acceptor|10=239|
8=FIX.4.4|9=61|35=0|34=71|49=Acceptor|52=20191217-23:35:21.531|56=Initiator|10=238|
8=FIX.4.4|9=61|35=0|34=71|49=Initiator|52=20191217-23:35:22.404|56=Acceptor|10=238|
8=FIX.4.4|9=61|35=0|34=72|49=Acceptor|52=20191217-23:35:27.530|56=Initiator|10=244|
8=FIX.4.4|9=61|35=0|34=72|49=Initiator|52=20191217-23:35:28.402|56=Acceptor|10=243|
8=FIX.4.4|9=61|35=0|34=73|49=Acceptor|52=20191217-23:35:33.533|56=Initiator|10=245|
8=FIX.4.4|9=61|35=0|34=73|49=Initiator|52=20191217-23:35:34.403|56=Acceptor|10=242|
8=FIX.4.4|9=61|35=0|34=74|49=Acceptor|52=20191217-23:35:39.529|56=Initiator|10=001|
8=FIX.4.4|9=61|35=0|34=74|49=Initiator|52=20191217-23:35:40.401|56=Acceptor|10=238|
8=FIX.4.4|9=77|35=A|34=1|49=Initiator|52=20191218-08:47:11.331|56=Acceptor|98=0|108=6|141=Y|10=236|
8=FIX.4.4|9=77|35=A|34=1|49=Acceptor|52=20191218-08:47:11.454|56=Initiator|98=0|108=6|141=Y|10=242|
8=FIX.4.4|9=60|35=0|34=2|49=Acceptor|52=20191218-08:47:17.889|56=Initiator|10=211|
8=FIX.4.4|9=60|35=0|34=2|49=Initiator|52=20191218-08:47:17.933|56=Acceptor|10=201|
8=FIX.4.4|9=60|35=0|34=3|49=Acceptor|52=20191218-08:47:23.888|56=Initiator|10=208|
8=FIX.4.4|9=60|35=0|34=3|49=Initiator|52=20191218-08:47:24.313|56=Acceptor|10=192|
8=FIX.4.4|9=60|35=0|34=4|49=Acceptor|52=20191218-08:47:29.887|56=Initiator|10=214|
8=FIX.4.4|9=60|35=0|34=4|49=Initiator|52=20191218-08:47:30.311|56=Acceptor|10=188|
8=FIX.4.4|9=60|35=0|34=5|49=Acceptor|52=20191218-08:47:35.887|56=Initiator|10=212|
8=FIX.4.4|9=60|35=0|34=5|49=Initiator|52=20191218-08:47:36.312|56=Acceptor|10=196|
8=FIX.4.4|9=60|35=0|34=6|49=Acceptor|52=20191218-08:47:41.887|56=Initiator|10=210|
8=FIX.4.4|9=60|35=0|34=6|49=Initiator|52=20191218-08:47:42.314|56=Acceptor|10=196|
8=FIX.4.4|9=60|35=0|34=7|49=Acceptor|52=20191218-08:47:47.887|56=Initiator|10=217|
8=FIX.4.4|9=60|35=0|34=7|49=Initiator|52=20191218-08:47:48.313|56=Acceptor|10=202|
8=FIX.4.4|9=60|35=0|34=8|49=Acceptor|52=20191218-08:47:53.887|56=Initiator|10=215|
8=FIX.4.4|9=60|35=0|34=8|49=Initiator|52=20191218-08:47:54.312|56=Acceptor|10=199|
8=FIX.4.4|9=60|35=0|34=9|49=Acceptor|52=20191218-08:47:59.888|56=Initiator|10=223|
8=FIX.4.4|9=60|35=0|34=9|49=Initiator|52=20191218-08:48:00.313|56=Acceptor|10=193|
8=FIX.4.4|9=61|35=0|34=10|49=Acceptor|52=20191218-08:48:05.886|56=Initiator|10=254|
8=FIX.4.4|9=61|35=0|34=10|49=Initiator|52=20191218-08:48:06.311|56=Acceptor|10=238|
8=FIX.4.4|9=61|35=0|34=11|49=Acceptor|52=20191218-08:48:11.888|56=Initiator|10=254|
8=FIX.4.4|9=61|35=0|34=11|49=Initiator|52=20191218-08:48:12.313|56=Acceptor|10=238|
8=FIX.4.4|9=61|35=0|34=12|49=Acceptor|52=20191218-08:48:17.887|56=Initiator|10=004|
8=FIX.4.4|9=61|35=0|34=12|49=Initiator|52=20191218-08:48:18.312|56=Acceptor|10=244|
8=FIX.4.4|9=61|35=0|34=13|49=Acceptor|52=20191218-08:48:23.888|56=Initiator|10=003|
8=FIX.4.4|9=61|35=0|34=13|49=Initiator|52=20191218-08:48:24.312|56=Acceptor|10=242|
8=FIX.4.4|9=61|35=0|34=14|49=Acceptor|52=20191218-08:48:29.887|56=Initiator|10=009|
8=FIX.4.4|9=61|35=0|34=14|49=Initiator|52=20191218-08:48:30.312|56=Acceptor|10=240|
8=FIX.4.4|9=61|35=0|34=15|49=Acceptor|52=20191218-08:48:35.888|56=Initiator|10=008|
8=FIX.4.4|9=61|35=0|34=15|49=Initiator|52=20191218-08:48:36.313|56=Acceptor|10=248|
8=FIX.4.4|9=61|35=0|34=16|49=Acceptor|52=20191218-08:48:41.887|56=Initiator|10=005|
8=FIX.4.4|9=61|35=0|34=16|49=Initiator|52=20191218-08:48:42.311|56=Acceptor|10=244|
8=FIX.4.4|9=61|35=0|34=17|49=Acceptor|52=20191218-08:48:47.888|56=Initiator|10=013|
8=FIX.4.4|9=61|35=0|34=17|49=Initiator|52=20191218-08:48:48.311|56=Acceptor|10=251|
8=FIX.4.4|9=61|35=0|34=18|49=Acceptor|52=20191218-08:48:53.887|56=Initiator|10=010|
8=FIX.4.4|9=61|35=0|34=18|49=Initiator|52=20191218-08:48:54.312|56=Acceptor|10=250|
8=FIX.4.4|9=61|35=0|34=19|49=Acceptor|52=20191218-08:48:59.887|56=Initiator|10=017|
8=FIX.4.4|9=61|35=0|34=19|49=Initiator|52=20191218-08:49:00.311|56=Acceptor|10=242|
8=FIX.4.4|9=61|35=0|34=20|49=Acceptor|52=20191218-08:49:05.888|56=Initiator|10=002|
8=FIX.4.4|9=61|35=0|34=20|49=Initiator|52=20191218-08:49:06.312|56=Acceptor|10=241|
8=FIX.4.4|9=61|35=0|34=21|49=Acceptor|52=20191218-08:49:11.887|56=Initiator|10=255|
8=FIX.4.4|9=61|35=0|34=21|49=Initiator|52=20191218-08:49:12.311|56=Acceptor|10=238|
8=FIX.4.4|9=61|35=0|34=22|49=Acceptor|52=20191218-08:49:17.888|56=Initiator|10=007|
8=FIX.4.4|9=61|35=0|34=22|49=Initiator|52=20191218-08:49:18.312|56=Acceptor|10=246|
8=FIX.4.4|9=61|35=0|34=23|49=Acceptor|52=20191218-08:49:23.888|56=Initiator|10=005|
8=FIX.4.4|9=61|35=0|34=23|49=Initiator|52=20191218-08:49:24.312|56=Acceptor|10=244|
8=FIX.4.4|9=61|35=0|34=24|49=Acceptor|52=20191218-08:49:29.887|56=Initiator|10=011|
8=FIX.4.4|9=61|35=0|34=24|49=Initiator|52=20191218-08:49:30.312|56=Acceptor|10=242|
8=FIX.4.4|9=61|35=0|34=25|49=Acceptor|52=20191218-08:49:35.887|56=Initiator|10=009|
8=FIX.4.4|9=61|35=0|34=25|49=Initiator|52=20191218-08:49:36.312|56=Acceptor|10=249|
8=FIX.4.4|9=61|35=0|34=26|49=Acceptor|52=20191218-08:49:41.888|56=Initiator|10=008|
8=FIX.4.4|9=61|35=0|34=26|49=Initiator|52=20191218-08:49:42.311|56=Acceptor|10=246|
8=FIX.4.4|9=61|35=0|34=27|49=Acceptor|52=20191218-08:49:47.888|56=Initiator|10=015|
8=FIX.4.4|9=61|35=0|34=27|49=Initiator|52=20191218-08:49:48.312|56=Acceptor|10=254|
8=FIX.4.4|9=61|35=0|34=28|49=Acceptor|52=20191218-08:49:53.886|56=Initiator|10=011|
8=FIX.4.4|9=61|35=0|34=28|49=Initiator|52=20191218-08:49:54.312|56=Acceptor|10=252|
8=FIX.4.4|9=61|35=0|34=29|49=Acceptor|52=20191218-08:49:59.887|56=Initiator|10=019|
8=FIX.4.4|9=61|35=0|34=29|49=Initiator|52=20191218-08:50:00.312|56=Acceptor|10=236|
8=FIX.4.4|9=61|35=0|34=30|49=Acceptor|52=20191218-08:50:05.888|56=Initiator|10=251|
8=FIX.4.4|9=61|35=0|34=30|49=Initiator|52=20191218-08:50:06.311|56=Acceptor|10=233|
8=FIX.4.4|9=61|35=0|34=31|49=Acceptor|52=20191218-08:50:11.887|56=Initiator|10=248|
8=FIX.4.4|9=61|35=0|34=31|49=Initiator|52=20191218-08:50:12.312|56=Acceptor|10=232|
8=FIX.4.4|9=61|35=0|34=32|49=Acceptor|52=20191218-08:50:17.887|56=Initiator|10=255|
8=FIX.4.4|9=61|35=0|34=32|49=Initiator|52=20191218-08:50:18.311|56=Acceptor|10=238|
8=FIX.4.4|9=61|35=0|34=33|49=Acceptor|52=20191218-08:50:23.888|56=Initiator|10=254|
8=FIX.4.4|9=61|35=0|34=33|49=Initiator|52=20191218-08:50:24.311|56=Acceptor|10=236|
8=FIX.4.4|9=61|35=0|34=34|49=Acceptor|52=20191218-08:50:29.887|56=Initiator|10=004|
8=FIX.4.4|9=61|35=0|34=34|49=Initiator|52=20191218-08:50:30.312|56=Acceptor|10=235|
8=FIX.4.4|9=61|35=0|34=35|49=Acceptor|52=20191218-08:50:35.886|56=Initiator|10=001|
8=FIX.4.4|9=61|35=0|34=35|49=Initiator|52=20191218-08:50:36.311|56=Acceptor|10=241|
8=FIX.4.4|9=61|35=0|34=36|49=Acceptor|52=20191218-08:50:41.886|56=Initiator|10=255|
8=FIX.4.4|9=61|35=0|34=36|49=Initiator|52=20191218-08:50:42.311|56=Acceptor|10=239|
8=FIX.4.4|9=61|35=0|34=37|49=Acceptor|52=20191218-08:50:47.887|56=Initiator|10=007|
8=FIX.4.4|9=61|35=0|34=37|49=Initiator|52=20191218-08:50:48.312|56=Acceptor|10=247|
8=FIX.4.4|9=61|35=0|34=38|49=Acceptor|52=20191218-08:50:53.888|56=Initiator|10=006|
8=FIX.4.4|9=61|35=0|34=38|49=Initiator|52=20191218-08:50:54.311|56=Acceptor|10=244|
8=FIX.4.4|9=61|35=0|34=39|49=Acceptor|52=20191218-08:50:59.888|56=Initiator|10=013|
8=FIX.4.4|9=61|35=0|34=39|49=Initiator|52=20191218-08:51:00.312|56=Acceptor|10=238|
8=FIX.4.4|9=61|35=0|34=40|49=Acceptor|52=20191218-08:51:05.888|56=Initiator|10=253|
8=FIX.4.4|9=61|35=0|34=40|49=Initiator|52=20191218-08:51:06.311|56=Acceptor|10=235|
8=FIX.4.4|9=61|35=0|34=41|49=Acceptor|52=20191218-08:51:11.887|56=Initiator|10=250|
8=FIX.4.4|9=61|35=0|34=41|49=Initiator|52=20191218-08:51:12.312|56=Acceptor|10=234|
8=FIX.4.4|9=61|35=0|34=42|49=Acceptor|52=20191218-08:51:17.887|56=Initiator|10=001|
8=FIX.4.4|9=61|35=0|34=42|49=Initiator|52=20191218-08:51:18.312|56=Acceptor|10=241|
8=FIX.4.4|9=61|35=0|34=43|49=Acceptor|52=20191218-08:51:23.888|56=Initiator|10=000|
8=FIX.4.4|9=61|35=0|34=43|49=Initiator|52=20191218-08:51:24.312|56=Acceptor|10=239|
8=FIX.4.4|9=61|35=0|34=44|49=Acceptor|52=20191218-08:51:29.887|56=Initiator|10=006|
8=FIX.4.4|9=61|35=0|34=44|49=Initiator|52=20191218-08:51:30.311|56=Acceptor|10=236|
8=FIX.4.4|9=61|35=0|34=45|49=Acceptor|52=20191218-08:51:35.887|56=Initiator|10=004|
8=FIX.4.4|9=61|35=0|34=45|49=Initiator|52=20191218-08:51:36.311|56=Acceptor|10=243|
8=FIX.4.4|9=61|35=0|34=46|49=Acceptor|52=20191218-08:51:41.886|56=Initiator|10=001|
8=FIX.4.4|9=61|35=0|34=46|49=Initiator|52=20191218-08:51:42.313|56=Acceptor|10=243|
8=FIX.4.4|9=61|35=0|34=47|49=Acceptor|52=20191218-08:51:47.887|56=Initiator|10=009|
8=FIX.4.4|9=61|35=0|34=47|49=Initiator|52=20191218-08:51:48.313|56=Acceptor|10=250|
8=FIX.4.4|9=61|35=0|34=48|49=Acceptor|52=20191218-08:51:53.888|56=Initiator|10=008|
8=FIX.4.4|9=61|35=0|34=48|49=Initiator|52=20191218-08:51:54.312|56=Acceptor|10=247|
8=FIX.4.4|9=61|35=0|34=49|49=Acceptor|52=20191218-08:51:59.888|56=Initiator|10=015|
8=FIX.4.4|9=61|35=0|34=49|49=Initiator|52=20191218-08:52:00.312|56=Acceptor|10=240|
8=FIX.4.4|9=61|35=0|34=50|49=Acceptor|52=20191218-08:52:05.888|56=Initiator|10=255|
8=FIX.4.4|9=61|35=0|34=50|49=Initiator|52=20191218-08:52:06.311|56=Acceptor|10=237|
8=FIX.4.4|9=61|35=0|34=51|49=Acceptor|52=20191218-08:52:11.887|56=Initiator|10=252|
8=FIX.4.4|9=61|35=0|34=51|49=Initiator|52=20191218-08:52:12.312|56=Acceptor|10=236|
8=FIX.4.4|9=61|35=0|34=52|49=Acceptor|52=20191218-08:52:17.888|56=Initiator|10=004|
8=FIX.4.4|9=61|35=0|34=52|49=Initiator|52=20191218-08:52:18.311|56=Acceptor|10=242|
8=FIX.4.4|9=61|35=0|34=53|49=Acceptor|52=20191218-08:52:23.887|56=Initiator|10=001|
8=FIX.4.4|9=61|35=0|34=53|49=Initiator|52=20191218-08:52:24.311|56=Acceptor|10=240|
8=FIX.4.4|9=61|35=0|34=54|49=Acceptor|52=20191218-08:52:29.886|56=Initiator|10=007|
8=FIX.4.4|9=61|35=0|34=54|49=Initiator|52=20191218-08:52:30.313|56=Acceptor|10=240|
8=FIX.4.4|9=61|35=0|34=55|49=Acceptor|52=20191218-08:52:35.887|56=Initiator|10=006|
8=FIX.4.4|9=61|35=0|34=55|49=Initiator|52=20191218-08:52:36.312|56=Acceptor|10=246|
8=FIX.4.4|9=61|35=0|34=56|49=Acceptor|52=20191218-08:52:41.887|56=Initiator|10=004|
8=FIX.4.4|9=61|35=0|34=56|49=Initiator|52=20191218-08:52:42.313|56=Acceptor|10=245|
8=FIX.4.4|9=61|35=0|34=57|49=Acceptor|52=20191218-08:52:47.886|56=Initiator|10=010|
8=FIX.4.4|9=61|35=0|34=57|49=Initiator|52=20191218-08:52:48.311|56=Acceptor|10=250|
8=FIX.4.4|9=61|35=0|34=58|49=Acceptor|52=20191218-08:52:53.888|56=Initiator|10=010|
8=FIX.4.4|9=61|35=0|34=58|49=Initiator|52=20191218-08:52:54.313|56=Acceptor|10=250|
8=FIX.4.4|9=61|35=0|34=59|49=Acceptor|52=20191218-08:52:59.887|56=Initiator|10=016|
8=FIX.4.4|9=61|35=0|34=59|49=Initiator|52=20191218-08:53:00.312|56=Acceptor|10=242|
8=FIX.4.4|9=72|35=A|34=60|49=Initiator|52=20191218-08:53:16.519|56=Acceptor|98=0|108=6|10=249|
8=FIX.4.4|9=71|35=A|34=1|49=Acceptor|52=20191218-08:53:16.589|56=Initiator|98=0|108=6|10=202|
8=FIX.4.4|9=111|35=5|34=61|49=Initiator|52=20191218-08:53:16.612|56=Acceptor|58=MsgSeqNum too low, expecting 60 but received 1|10=241|
8=FIX.4.4|9=69|35=2|34=2|49=Acceptor|52=20191218-08:53:16.595|56=Initiator|7=1|16=0|10=079|
8=FIX.4.4|9=77|35=A|34=1|49=Initiator|52=20191218-08:53:46.497|56=Acceptor|98=0|108=6|141=Y|10=254|
8=FIX.4.4|9=77|35=A|34=1|49=Acceptor|52=20191218-08:53:46.581|56=Initiator|98=0|108=6|141=Y|10=248|
8=FIX.4.4|9=60|35=0|34=2|49=Initiator|52=20191218-08:53:52.499|56=Acceptor|10=204|
8=FIX.4.4|9=60|35=0|34=2|49=Acceptor|52=20191218-08:53:52.887|56=Initiator|10=205|
8=FIX.4.4|9=60|35=0|34=3|49=Initiator|52=20191218-08:53:58.497|56=Acceptor|10=209|
8=FIX.4.4|9=60|35=0|34=3|49=Acceptor|52=20191218-08:53:58.887|56=Initiator|10=212|
8=FIX.4.4|9=60|35=0|34=4|49=Initiator|52=20191218-08:54:04.497|56=Acceptor|10=202|
8=FIX.4.4|9=60|35=0|34=4|49=Acceptor|52=20191218-08:54:04.888|56=Initiator|10=206|
8=FIX.4.4|9=60|35=0|34=5|49=Initiator|52=20191218-08:54:10.497|56=Acceptor|10=200|
8=FIX.4.4|9=60|35=0|34=5|49=Acceptor|52=20191218-08:54:10.887|56=Initiator|10=203|
8=FIX.4.4|9=60|35=0|34=6|49=Initiator|52=20191218-08:54:16.498|56=Acceptor|10=208|
8=FIX.4.4|9=60|35=0|34=6|49=Acceptor|52=20191218-08:54:16.887|56=Initiator|10=210|
8=FIX.4.4|9=60|35=0|34=7|49=Initiator|52=20191218-08:54:22.498|56=Acceptor|10=206|
8=FIX.4.4|9=60|35=0|34=7|49=Acceptor|52=20191218-08:54:22.886|56=Initiator|10=207|
8=FIX.4.4|9=60|35=0|34=8|49=Initiator|52=20191218-08:54:28.498|56=Acceptor|10=213|
8=FIX.4.4|9=60|35=0|34=8|49=Acceptor|52=20191218-08:54:28.888|56=Initiator|10=216|
8=FIX.4.4|9=60|35=0|34=9|49=Initiator|52=20191218-08:54:34.497|56=Acceptor|10=210|
8=FIX.4.4|9=60|35=0|34=9|49=Acceptor|52=20191218-08:54:34.888|56=Initiator|10=214|
8=FIX.4.4|9=61|35=0|34=10|49=Initiator|52=20191218-08:54:40.497|56=Acceptor|10=248|
8=FIX.4.4|9=61|35=0|34=10|49=Acceptor|52=20191218-08:54:40.887|56=Initiator|10=251|
8=FIX.4.4|9=61|35=0|34=11|49=Initiator|52=20191218-08:54:46.498|56=Acceptor|10=000|
8=FIX.4.4|9=61|35=0|34=11|49=Acceptor|52=20191218-08:54:46.886|56=Initiator|10=001|
8=FIX.4.4|9=61|35=0|34=12|49=Initiator|52=20191218-08:54:52.497|56=Acceptor|10=253|
8=FIX.4.4|9=61|35=0|34=12|49=Acceptor|52=20191218-08:54:52.888|56=Initiator|10=001|
8=FIX.4.4|9=61|35=0|34=13|49=Initiator|52=20191218-08:54:58.498|56=Acceptor|10=005|
8=FIX.4.4|9=61|35=0|34=13|49=Acceptor|52=20191218-08:54:58.887|56=Initiator|10=007|
8=FIX.4.4|9=61|35=0|34=14|49=Initiator|52=20191218-08:55:04.497|56=Acceptor|10=253|
8=FIX.4.4|9=61|35=0|34=14|49=Acceptor|52=20191218-08:55:04.888|56=Initiator|10=001|
8=FIX.4.4|9=61|35=0|34=15|49=Initiator|52=20191218-08:55:10.497|56=Acceptor|10=251|
8=FIX.4.4|9=61|35=0|34=15|49=Acceptor|52=20191218-08:55:10.887|56=Initiator|10=254|
8=FIX.4.4|9=61|35=0|34=16|49=Initiator|52=20191218-08:55:16.497|56=Acceptor|10=002|
8=FIX.4.4|9=61|35=0|34=16|49=Acceptor|52=20191218-08:55:16.886|56=Initiator|10=004|
8=FIX.4.4|9=61|35=0|34=17|49=Initiator|52=20191218-08:55:22.497|56=Acceptor|10=000|
8=FIX.4.4|9=61|35=0|34=17|49=Acceptor|52=20191218-08:55:22.888|56=Initiator|10=004|
8=FIX.4.4|9=61|35=0|34=18|49=Initiator|52=20191218-08:55:28.497|56=Acceptor|10=007|
8=FIX.4.4|9=61|35=0|34=18|49=Acceptor|52=20191218-08:55:28.887|56=Initiator|10=010|
8=FIX.4.4|9=61|35=0|34=19|49=Initiator|52=20191218-08:55:34.497|56=Acceptor|10=005|
8=FIX.4.4|9=61|35=0|34=19|49=Acceptor|52=20191218-08:55:34.887|56=Initiator|10=008|
8=FIX.4.4|9=61|35=0|34=20|49=Initiator|52=20191218-08:55:40.497|56=Acceptor|10=250|
8=FIX.4.4|9=61|35=0|34=20|49=Acceptor|52=20191218-08:55:40.887|56=Initiator|10=253|
8=FIX.4.4|9=61|35=0|34=21|49=Initiator|52=20191218-08:55:46.497|56=Acceptor|10=001|
8=FIX.4.4|9=61|35=0|34=21|49=Acceptor|52=20191218-08:55:46.887|56=Initiator|10=004|
8=FIX.4.4|9=61|35=0|34=22|49=Initiator|52=20191218-08:55:52.497|56=Acceptor|10=255|
8=FIX.4.4|9=61|35=0|34=22|49=Acceptor|52=20191218-08:55:52.888|56=Initiator|10=003|
8=FIX.4.4|9=61|35=0|34=23|49=Initiator|52=20191218-08:55:58.498|56=Acceptor|10=007|
8=FIX.4.4|9=61|35=0|34=23|49=Acceptor|52=20191218-08:55:58.888|56=Initiator|10=010|
8=FIX.4.4|9=61|35=0|34=24|49=Initiator|52=20191218-08:56:04.498|56=Acceptor|10=000|
8=FIX.4.4|9=61|35=0|34=24|49=Acceptor|52=20191218-08:56:04.887|56=Initiator|10=002|
8=FIX.4.4|9=72|35=A|34=25|49=Initiator|52=20191218-08:56:26.218|56=Acceptor|98=0|108=6|10=250|
8=FIX.4.4|9=71|35=A|34=1|49=Acceptor|52=20191218-08:56:26.279|56=Initiator|98=0|108=6|10=202|
8=FIX.4.4|9=111|35=5|34=26|49=Initiator|52=20191218-08:56:26.387|56=Acceptor|58=MsgSeqNum too low, expecting 25 but received 1|10=000|
8=FIX.4.4|9=69|35=2|34=2|49=Acceptor|52=20191218-08:56:26.284|56=Initiator|7=1|16=0|10=078|
8=FIX.4.4|9=77|35=A|34=1|49=Initiator|52=20191218-08:56:56.200|56=Acceptor|98=0|108=6|141=Y|10=240|
8=FIX.4.4|9=77|35=A|34=1|49=Acceptor|52=20191218-08:56:56.356|56=Initiator|98=0|108=6|141=Y|10=252|
8=FIX.4.4|9=60|35=0|34=2|49=Initiator|52=20191218-08:57:02.201|56=Acceptor|10=184|
8=FIX.4.4|9=60|35=0|34=2|49=Acceptor|52=20191218-08:57:02.887|56=Initiator|10=204|
8=FIX.4.4|9=60|35=0|34=3|49=Initiator|52=20191218-08:57:08.202|56=Acceptor|10=192|
8=FIX.4.4|9=60|35=0|34=3|49=Acceptor|52=20191218-08:57:08.887|56=Initiator|10=211|
8=FIX.4.4|9=60|35=0|34=4|49=Initiator|52=20191218-08:57:14.202|56=Acceptor|10=190|
8=FIX.4.4|9=60|35=0|34=4|49=Acceptor|52=20191218-08:57:14.888|56=Initiator|10=210|
8=FIX.4.4|9=60|35=0|34=5|49=Initiator|52=20191218-08:57:20.201|56=Acceptor|10=187|
8=FIX.4.4|9=60|35=0|34=5|49=Acceptor|52=20191218-08:57:20.887|56=Initiator|10=207|
8=FIX.4.4|9=60|35=0|34=6|49=Initiator|52=20191218-08:57:26.200|56=Acceptor|10=193|
8=FIX.4.4|9=60|35=0|34=6|49=Acceptor|52=20191218-08:57:26.887|56=Initiator|10=214|
8=FIX.4.4|9=60|35=0|34=7|49=Initiator|52=20191218-08:57:32.201|56=Acceptor|10=192|
8=FIX.4.4|9=60|35=0|34=7|49=Acceptor|52=20191218-08:57:32.887|56=Initiator|10=212|
8=FIX.4.4|9=60|35=0|34=8|49=Initiator|52=20191218-08:57:38.200|56=Acceptor|10=198|
8=FIX.4.4|9=60|35=0|34=8|49=Acceptor|52=20191218-08:57:38.887|56=Initiator|10=219|
8=FIX.4.4|9=60|35=0|34=9|49=Initiator|52=20191218-08:57:44.201|56=Acceptor|10=197|
8=FIX.4.4|9=60|35=0|34=9|49=Acceptor|52=20191218-08:57:44.888|56=Initiator|10=218|
8=FIX.4.4|9=61|35=0|34=10|49=Initiator|52=20191218-08:57:50.201|56=Acceptor|10=235|
8=FIX.4.4|9=61|35=0|34=10|49=Acceptor|52=20191218-08:57:50.887|56=Initiator|10=255|
8=FIX.4.4|9=61|35=0|34=11|49=Initiator|52=20191218-08:57:56.202|56=Acceptor|10=243|
8=FIX.4.4|9=61|35=0|34=11|49=Acceptor|52=20191218-08:57:56.888|56=Initiator|10=007|
8=FIX.4.4|9=61|35=0|34=12|49=Initiator|52=20191218-08:58:02.201|56=Acceptor|10=235|
8=FIX.4.4|9=61|35=0|34=12|49=Acceptor|52=20191218-08:58:02.888|56=Initiator|10=000|
8=FIX.4.4|9=61|35=0|34=13|49=Initiator|52=20191218-08:58:08.200|56=Acceptor|10=241|
8=FIX.4.4|9=61|35=0|34=13|49=Acceptor|52=20191218-08:58:08.887|56=Initiator|10=006|
8=FIX.4.4|9=61|35=0|34=14|49=Initiator|52=20191218-08:58:14.201|56=Acceptor|10=240|
8=FIX.4.4|9=61|35=0|34=14|49=Acceptor|52=20191218-08:58:14.888|56=Initiator|10=005|
8=FIX.4.4|9=61|35=0|34=15|49=Initiator|52=20191218-08:58:20.200|56=Acceptor|10=237|
8=FIX.4.4|9=61|35=0|34=15|49=Acceptor|52=20191218-08:58:20.886|56=Initiator|10=001|
8=FIX.4.4|9=61|35=0|34=16|49=Initiator|52=20191218-08:58:26.201|56=Acceptor|10=245|
8=FIX.4.4|9=61|35=0|34=16|49=Acceptor|52=20191218-08:58:26.887|56=Initiator|10=009|
8=FIX.4.4|9=61|35=0|34=17|49=Initiator|52=20191218-08:58:32.201|56=Acceptor|10=243|
8=FIX.4.4|9=61|35=0|34=17|49=Acceptor|52=20191218-08:58:32.887|56=Initiator|10=007|
8=FIX.4.4|9=61|35=0|34=18|49=Initiator|52=20191218-08:58:38.200|56=Acceptor|10=249|
8=FIX.4.4|9=61|35=0|34=18|49=Acceptor|52=20191218-08:58:38.887|56=Initiator|10=014|
8=FIX.4.4|9=61|35=0|34=19|49=Initiator|52=20191218-08:58:44.200|56=Acceptor|10=247|
8=FIX.4.4|9=61|35=0|34=19|49=Acceptor|52=20191218-08:58:44.887|56=Initiator|10=012|
8=FIX.4.4|9=61|35=0|34=20|49=Initiator|52=20191218-08:58:50.200|56=Acceptor|10=236|
8=FIX.4.4|9=61|35=0|34=20|49=Acceptor|52=20191218-08:58:50.887|56=Initiator|10=001|
8=FIX.4.4|9=61|35=0|34=21|49=Initiator|52=20191218-08:58:56.201|56=Acceptor|10=244|
8=FIX.4.4|9=61|35=0|34=21|49=Acceptor|52=20191218-08:58:56.887|56=Initiator|10=008|
8=FIX.4.4|9=61|35=0|34=22|49=Initiator|52=20191218-08:59:02.201|56=Acceptor|10=237|
8=FIX.4.4|9=61|35=0|34=22|49=Acceptor|52=20191218-08:59:02.886|56=Initiator|10=000|
8=FIX.4.4|9=61|35=0|34=23|49=Initiator|52=20191218-08:59:08.200|56=Acceptor|10=243|
8=FIX.4.4|9=61|35=0|34=23|49=Acceptor|52=20191218-08:59:08.888|56=Initiator|10=009|
8=FIX.4.4|9=61|35=0|34=24|49=Initiator|52=20191218-08:59:14.200|56=Acceptor|10=241|
8=FIX.4.4|9=61|35=0|34=24|49=Acceptor|52=20191218-08:59:14.887|56=Initiator|10=006|
8=FIX.4.4|9=61|35=0|34=25|49=Initiator|52=20191218-08:59:20.200|56=Acceptor|10=239|
8=FIX.4.4|9=61|35=0|34=25|49=Acceptor|52=20191218-08:59:20.888|56=Initiator|10=005|
8=FIX.4.4|9=61|35=0|34=26|49=Initiator|52=20191218-08:59:26.201|56=Acceptor|10=247|
8=FIX.4.4|9=61|35=0|34=26|49=Acceptor|52=20191218-08:59:26.886|56=Initiator|10=010|
8=FIX.4.4|9=61|35=0|34=27|49=Initiator|52=20191218-08:59:32.200|56=Acceptor|10=244|
8=FIX.4.4|9=61|35=0|34=27|49=Acceptor|52=20191218-08:59:32.888|56=Initiator|10=010|
8=FIX.4.4|9=61|35=0|34=28|49=Initiator|52=20191218-08:59:38.200|56=Acceptor|10=251|
8=FIX.4.4|9=61|35=0|34=28|49=Acceptor|52=20191218-08:59:38.887|56=Initiator|10=016|
8=FIX.4.4|9=61|35=0|34=29|49=Initiator|52=20191218-08:59:44.200|56=Acceptor|10=249|
8=FIX.4.4|9=61|35=0|34=29|49=Acceptor|52=20191218-08:59:44.888|56=Initiator|10=015|
8=FIX.4.4|9=61|35=0|34=30|49=Initiator|52=20191218-08:59:50.201|56=Acceptor|10=239|
8=FIX.4.4|9=61|35=0|34=30|49=Acceptor|52=20191218-08:59:50.887|56=Initiator|10=003|
8=FIX.4.4|9=61|35=0|34=31|49=Initiator|52=20191218-08:59:56.201|56=Acceptor|10=246|
8=FIX.4.4|9=61|35=0|34=31|49=Acceptor|52=20191218-08:59:56.886|56=Initiator|10=009|
8=FIX.4.4|9=61|35=0|34=32|49=Initiator|52=20191218-09:00:02.201|56=Acceptor|10=225|
8=FIX.4.4|9=61|35=0|34=32|49=Acceptor|52=20191218-09:00:02.886|56=Initiator|10=244|
8=FIX.4.4|9=61|35=0|34=33|49=Initiator|52=20191218-09:00:08.200|56=Acceptor|10=231|
8=FIX.4.4|9=61|35=0|34=33|49=Acceptor|52=20191218-09:00:08.888|56=Initiator|10=253|
8=FIX.4.4|9=61|35=0|34=34|49=Initiator|52=20191218-09:00:14.201|56=Acceptor|10=230|
8=FIX.4.4|9=72|35=A|34=35|49=Initiator|52=20191218-09:00:45.553|56=Acceptor|98=0|108=6|10=244|
8=FIX.4.4|9=71|35=A|34=1|49=Acceptor|52=20191218-09:00:45.614|56=Initiator|98=0|108=6|10=186|
8=FIX.4.4|9=69|35=2|34=2|49=Acceptor|52=20191218-09:00:45.616|56=Initiator|7=1|16=0|10=068|
8=FIX.4.4|9=111|35=5|34=36|49=Initiator|52=20191218-09:00:45.635|56=Acceptor|58=MsgSeqNum too low, expecting 34 but received 1|10=244|
8=FIX.4.4|9=77|35=A|34=1|49=Initiator|52=20191218-09:01:15.532|56=Acceptor|98=0|108=6|141=Y|10=234|
8=FIX.4.4|9=77|35=A|34=1|49=Acceptor|52=20191218-09:01:15.635|56=Initiator|98=0|108=6|141=Y|10=238|
8=FIX.4.4|9=60|35=0|34=2|49=Initiator|52=20191218-09:01:21.533|56=Acceptor|10=183|
8=FIX.4.4|9=60|35=0|34=2|49=Acceptor|52=20191218-09:01:21.747|56=Initiator|10=190|
8=FIX.4.4|9=60|35=0|34=3|49=Initiator|52=20191218-09:01:27.530|56=Acceptor|10=187|
8=FIX.4.4|9=60|35=0|34=3|49=Acceptor|52=20191218-09:01:27.886|56=Initiator|10=201|
8=FIX.4.4|9=60|35=0|34=4|49=Initiator|52=20191218-09:01:33.533|56=Acceptor|10=188|
8=FIX.4.4|9=60|35=0|34=4|49=Acceptor|52=20191218-09:01:33.887|56=Initiator|10=200|
8=FIX.4.4|9=60|35=0|34=5|49=Initiator|52=20191218-09:01:39.530|56=Acceptor|10=192|
8=FIX.4.4|9=60|35=0|34=5|49=Acceptor|52=20191218-09:01:39.887|56=Initiator|10=207|
8=FIX.4.4|9=60|35=0|34=6|49=Initiator|52=20191218-09:01:45.531|56=Acceptor|10=191|
8=FIX.4.4|9=60|35=0|34=6|49=Acceptor|52=20191218-09:01:45.886|56=Initiator|10=204|
8=FIX.4.4|9=60|35=0|34=7|49=Initiator|52=20191218-09:01:51.532|56=Acceptor|10=190|
8=FIX.4.4|9=60|35=0|34=7|49=Acceptor|52=20191218-09:01:51.887|56=Initiator|10=203|
8=FIX.4.4|9=60|35=0|34=8|49=Initiator|52=20191218-09:01:57.530|56=Acceptor|10=195|
8=FIX.4.4|9=60|35=0|34=8|49=Acceptor|52=20191218-09:01:57.887|56=Initiator|10=210|
8=FIX.4.4|9=60|35=0|34=9|49=Initiator|52=20191218-09:02:03.530|56=Acceptor|10=188|
8=FIX.4.4|9=60|35=0|34=9|49=Acceptor|52=20191218-09:02:03.887|56=Initiator|10=203|
8=FIX.4.4|9=61|35=0|34=10|49=Initiator|52=20191218-09:02:09.531|56=Acceptor|10=236|
8=FIX.4.4|9=61|35=0|34=10|49=Acceptor|52=20191218-09:02:09.887|56=Initiator|10=250|
8=FIX.4.4|9=61|35=0|34=11|49=Initiator|52=20191218-09:02:15.530|56=Acceptor|10=233|
8=FIX.4.4|9=61|35=0|34=11|49=Acceptor|52=20191218-09:02:15.887|56=Initiator|10=248|
8=FIX.4.4|9=61|35=0|34=12|49=Initiator|52=20191218-09:02:21.530|56=Acceptor|10=231|
8=FIX.4.4|9=61|35=0|34=12|49=Acceptor|52=20191218-09:02:21.888|56=Initiator|10=247|
8=FIX.4.4|9=61|35=0|34=13|49=Initiator|52=20191218-09:02:27.530|56=Acceptor|10=238|
8=FIX.4.4|9=61|35=0|34=13|49=Acceptor|52=20191218-09:02:27.888|56=Initiator|10=254|
8=FIX.4.4|9=61|35=0|34=14|49=Initiator|52=20191218-09:02:33.530|56=Acceptor|10=236|
8=FIX.4.4|9=61|35=0|34=14|49=Acceptor|52=20191218-09:02:33.887|56=Initiator|10=251|
8=FIX.4.4|9=61|35=0|34=15|49=Initiator|52=20191218-09:02:39.530|56=Acceptor|10=243|
8=FIX.4.4|9=61|35=0|34=15|49=Acceptor|52=20191218-09:02:39.887|56=Initiator|10=002|
8=FIX.4.4|9=61|35=0|34=16|49=Initiator|52=20191218-09:02:45.531|56=Acceptor|10=242|
8=FIX.4.4|9=61|35=0|34=16|49=Acceptor|52=20191218-09:02:45.888|56=Initiator|10=001|
8=FIX.4.4|9=61|35=0|34=17|49=Initiator|52=20191218-09:02:51.531|56=Acceptor|10=240|
8=FIX.4.4|9=61|35=0|34=17|49=Acceptor|52=20191218-09:02:51.886|56=Initiator|10=253|
8=FIX.4.4|9=61|35=0|34=18|49=Initiator|52=20191218-09:02:57.530|56=Acceptor|10=246|
8=FIX.4.4|9=61|35=0|34=18|49=Acceptor|52=20191218-09:02:57.886|56=Initiator|10=004|
8=FIX.4.4|9=61|35=0|34=19|49=Initiator|52=20191218-09:03:03.531|56=Acceptor|10=240|
8=FIX.4.4|9=61|35=0|34=19|49=Acceptor|52=20191218-09:03:03.886|56=Initiator|10=253|
8=FIX.4.4|9=61|35=0|34=20|49=Initiator|52=20191218-09:03:09.530|56=Acceptor|10=237|
8=FIX.4.4|9=61|35=0|34=20|49=Acceptor|52=20191218-09:03:09.888|56=Initiator|10=253|
8=FIX.4.4|9=61|35=0|34=21|49=Initiator|52=20191218-09:03:15.530|56=Acceptor|10=235|
8=FIX.4.4|9=61|35=0|34=21|49=Acceptor|52=20191218-09:03:15.888|56=Initiator|10=251|
8=FIX.4.4|9=61|35=0|34=22|49=Initiator|52=20191218-09:03:21.530|56=Acceptor|10=233|
8=FIX.4.4|9=61|35=0|34=22|49=Acceptor|52=20191218-09:03:21.887|56=Initiator|10=248|
8=FIX.4.4|9=61|35=0|34=23|49=Initiator|52=20191218-09:03:27.530|56=Acceptor|10=240|
8=FIX.4.4|9=61|35=0|34=23|49=Acceptor|52=20191218-09:03:27.887|56=Initiator|10=255|
8=FIX.4.4|9=61|35=0|34=24|49=Initiator|52=20191218-09:03:33.530|56=Acceptor|10=238|
8=FIX.4.4|9=61|35=0|34=24|49=Acceptor|52=20191218-09:03:33.888|56=Initiator|10=254|
8=FIX.4.4|9=61|35=0|34=25|49=Initiator|52=20191218-09:03:39.530|56=Acceptor|10=245|
8=FIX.4.4|9=61|35=0|34=25|49=Acceptor|52=20191218-09:03:39.887|56=Initiator|10=004|
8=FIX.4.4|9=61|35=0|34=26|49=Initiator|52=20191218-09:03:45.530|56=Acceptor|10=243|
8=FIX.4.4|9=61|35=0|34=26|49=Acceptor|52=20191218-09:03:45.887|56=Initiator|10=002|
8=FIX.4.4|9=61|35=0|34=27|49=Initiator|52=20191218-09:03:51.530|56=Acceptor|10=241|
8=FIX.4.4|9=61|35=0|34=27|49=Acceptor|52=20191218-09:03:51.887|56=Initiator|10=000|
8=FIX.4.4|9=61|35=0|34=28|49=Initiator|52=20191218-09:03:57.530|56=Acceptor|10=248|
8=FIX.4.4|9=61|35=0|34=28|49=Acceptor|52=20191218-09:03:57.888|56=Initiator|10=008|
8=FIX.4.4|9=61|35=0|34=29|49=Initiator|52=20191218-09:04:03.530|56=Acceptor|10=241|
8=FIX.4.4|9=61|35=0|34=29|49=Acceptor|52=20191218-09:04:03.887|56=Initiator|10=000|
8=FIX.4.4|9=61|35=0|34=30|49=Initiator|52=20191218-09:04:09.530|56=Acceptor|10=239|
8=FIX.4.4|9=61|35=0|34=30|49=Acceptor|52=20191218-09:04:09.887|56=Initiator|10=254|
8=FIX.4.4|9=61|35=0|34=31|49=Initiator|52=20191218-09:04:15.530|56=Acceptor|10=237|
8=FIX.4.4|9=61|35=0|34=31|49=Acceptor|52=20191218-09:04:15.887|56=Initiator|10=252|
8=FIX.4.4|9=61|35=0|34=32|49=Initiator|52=20191218-09:04:21.530|56=Acceptor|10=235|
8=FIX.4.4|9=61|35=0|34=32|49=Acceptor|52=20191218-09:04:21.887|56=Initiator|10=250|
8=FIX.4.4|9=61|35=0|34=33|49=Initiator|52=20191218-09:04:27.530|56=Acceptor|10=242|
8=FIX.4.4|9=61|35=0|34=33|49=Acceptor|52=20191218-09:04:27.887|56=Initiator|10=001|
8=FIX.4.4|9=61|35=0|34=34|49=Initiator|52=20191218-09:04:33.531|56=Acceptor|10=241|
8=FIX.4.4|9=61|35=0|34=34|49=Acceptor|52=20191218-09:04:33.887|56=Initiator|10=255|
8=FIX.4.4|9=61|35=0|34=35|49=Initiator|52=20191218-09:04:39.531|56=Acceptor|10=248|
8=FIX.4.4|9=61|35=0|34=35|49=Acceptor|52=20191218-09:04:39.887|56=Initiator|10=006|
8=FIX.4.4|9=61|35=0|34=36|49=Initiator|52=20191218-09:04:45.530|56=Acceptor|10=245|
8=FIX.4.4|9=61|35=0|34=36|49=Acceptor|52=20191218-09:04:45.887|56=Initiator|10=004|
8=FIX.4.4|9=61|35=0|34=37|49=Initiator|52=20191218-09:04:51.530|56=Acceptor|10=243|
8=FIX.4.4|9=61|35=0|34=37|49=Acceptor|52=20191218-09:04:51.886|56=Initiator|10=001|
8=FIX.4.4|9=61|35=0|34=38|49=Initiator|52=20191218-09:04:57.531|56=Acceptor|10=251|
8=FIX.4.4|9=61|35=0|34=38|49=Acceptor|52=20191218-09:04:57.887|56=Initiator|10=009|
8=FIX.4.4|9=61|35=0|34=39|49=Initiator|52=20191218-09:05:03.530|56=Acceptor|10=243|
8=FIX.4.4|9=61|35=0|34=39|49=Acceptor|52=20191218-09:05:03.887|56=Initiator|10=002|
8=FIX.4.4|9=61|35=0|34=40|49=Initiator|52=20191218-09:05:09.530|56=Acceptor|10=241|
8=FIX.4.4|9=61|35=0|34=40|49=Acceptor|52=20191218-09:05:09.887|56=Initiator|10=000|
8=FIX.4.4|9=61|35=0|34=41|49=Initiator|52=20191218-09:05:15.531|56=Acceptor|10=240|
8=FIX.4.4|9=61|35=0|34=41|49=Acceptor|52=20191218-09:05:15.887|56=Initiator|10=254|
8=FIX.4.4|9=61|35=0|34=42|49=Initiator|52=20191218-09:05:21.530|56=Acceptor|10=237|
8=FIX.4.4|9=61|35=0|34=42|49=Acceptor|52=20191218-09:05:21.887|56=Initiator|10=252|
8=FIX.4.4|9=61|35=0|34=43|49=Initiator|52=20191218-09:05:27.531|56=Acceptor|10=245|
8=FIX.4.4|9=61|35=0|34=43|49=Acceptor|52=20191218-09:05:27.887|56=Initiator|10=003|
8=FIX.4.4|9=61|35=0|34=44|49=Initiator|52=20191218-09:05:33.530|56=Acceptor|10=242|
8=FIX.4.4|9=61|35=0|34=44|49=Acceptor|52=20191218-09:05:33.887|56=Initiator|10=001|
8=FIX.4.4|9=61|35=0|34=45|49=Initiator|52=20191218-09:05:39.532|56=Acceptor|10=251|
8=FIX.4.4|9=61|35=0|34=45|49=Acceptor|52=20191218-09:05:39.888|56=Initiator|10=009|
8=FIX.4.4|9=61|35=0|34=46|49=Initiator|52=20191218-09:05:45.530|56=Acceptor|10=247|
8=FIX.4.4|9=61|35=0|34=46|49=Acceptor|52=20191218-09:05:45.888|56=Initiator|10=007|
8=FIX.4.4|9=61|35=0|34=47|49=Initiator|52=20191218-09:05:51.530|56=Acceptor|10=245|
8=FIX.4.4|9=61|35=0|34=47|49=Acceptor|52=20191218-09:05:51.887|56=Initiator|10=004|
8=FIX.4.4|9=61|35=0|34=48|49=Initiator|52=20191218-09:05:57.530|56=Acceptor|10=252|
8=FIX.4.4|9=61|35=0|34=48|49=Acceptor|52=20191218-09:05:57.887|56=Initiator|10=011|
8=FIX.4.4|9=61|35=0|34=49|49=Initiator|52=20191218-09:06:03.530|56=Acceptor|10=245|
8=FIX.4.4|9=61|35=0|34=49|49=Acceptor|52=20191218-09:06:03.887|56=Initiator|10=004|
8=FIX.4.4|9=61|35=0|34=50|49=Initiator|52=20191218-09:06:09.531|56=Acceptor|10=244|
8=FIX.4.4|9=61|35=0|34=50|49=Acceptor|52=20191218-09:06:09.888|56=Initiator|10=003|
8=FIX.4.4|9=61|35=0|34=51|49=Initiator|52=20191218-09:06:15.530|56=Acceptor|10=241|
8=FIX.4.4|9=61|35=0|34=51|49=Acceptor|52=20191218-09:06:15.887|56=Initiator|10=000|
8=FIX.4.4|9=61|35=0|34=52|49=Initiator|52=20191218-09:06:21.530|56=Acceptor|10=239|
8=FIX.4.4|9=61|35=0|34=52|49=Acceptor|52=20191218-09:06:21.888|56=Initiator|10=255|
8=FIX.4.4|9=61|35=0|34=53|49=Initiator|52=20191218-09:06:27.530|56=Acceptor|10=246|
8=FIX.4.4|9=61|35=0|34=53|49=Acceptor|52=20191218-09:06:27.887|56=Initiator|10=005|
8=FIX.4.4|9=61|35=0|34=54|49=Initiator|52=20191218-09:06:33.532|56=Acceptor|10=246|
8=FIX.4.4|9=61|35=0|34=54|49=Acceptor|52=20191218-09:06:33.888|56=Initiator|10=004|
8=FIX.4.4|9=61|35=0|34=55|49=Initiator|52=20191218-09:06:39.530|56=Acceptor|10=251|
8=FIX.4.4|9=61|35=0|34=55|49=Acceptor|52=20191218-09:06:39.887|56=Initiator|10=010|
8=FIX.4.4|9=61|35=0|34=56|49=Initiator|52=20191218-09:06:45.531|56=Acceptor|10=250|
8=FIX.4.4|9=61|35=0|34=56|49=Acceptor|52=20191218-09:06:45.886|56=Initiator|10=007|
8=FIX.4.4|9=61|35=0|34=57|49=Initiator|52=20191218-09:06:51.531|56=Acceptor|10=248|
8=FIX.4.4|9=61|35=0|34=57|49=Acceptor|52=20191218-09:06:51.887|56=Initiator|10=006|
8=FIX.4.4|9=61|35=0|34=58|49=Initiator|52=20191218-09:06:57.532|56=Acceptor|10=000|
8=FIX.4.4|9=61|35=0|34=58|49=Acceptor|52=20191218-09:06:57.888|56=Initiator|10=014|
8=FIX.4.4|9=61|35=0|34=59|49=Initiator|52=20191218-09:07:03.530|56=Acceptor|10=247|
8=FIX.4.4|9=61|35=0|34=59|49=Acceptor|52=20191218-09:07:03.887|56=Initiator|10=006|
8=FIX.4.4|9=61|35=0|34=60|49=Initiator|52=20191218-09:07:09.530|56=Acceptor|10=245|
8=FIX.4.4|9=61|35=0|34=60|49=Acceptor|52=20191218-09:07:09.888|56=Initiator|10=005|
8=FIX.4.4|9=61|35=0|34=61|49=Initiator|52=20191218-09:07:15.531|56=Acceptor|10=244|
8=FIX.4.4|9=61|35=0|34=61|49=Acceptor|52=20191218-09:07:15.887|56=Initiator|10=002|
8=FIX.4.4|9=61|35=0|34=62|49=Initiator|52=20191218-09:07:21.531|56=Acceptor|10=242|
8=FIX.4.4|9=61|35=0|34=62|49=Acceptor|52=20191218-09:07:21.887|56=Initiator|10=000|
8=FIX.4.4|9=61|35=0|34=63|49=Initiator|52=20191218-09:07:27.531|56=Acceptor|10=249|
8=FIX.4.4|9=61|35=0|34=63|49=Acceptor|52=20191218-09:07:27.888|56=Initiator|10=008|
8=FIX.4.4|9=61|35=0|34=64|49=Initiator|52=20191218-09:07:33.531|56=Acceptor|10=247|
8=FIX.4.4|9=61|35=0|34=64|49=Acceptor|52=20191218-09:07:33.888|56=Initiator|10=006|
8=FIX.4.4|9=61|35=0|34=65|49=Initiator|52=20191218-09:07:39.530|56=Acceptor|10=253|
8=FIX.4.4|9=61|35=0|34=65|49=Acceptor|52=20191218-09:07:39.887|56=Initiator|10=012|
8=FIX.4.4|9=61|35=0|34=66|49=Initiator|52=20191218-09:07:45.530|56=Acceptor|10=251|
8=FIX.4.4|9=61|35=0|34=66|49=Acceptor|52=20191218-09:07:45.888|56=Initiator|10=011|
8=FIX.4.4|9=61|35=0|34=67|49=Initiator|52=20191218-09:07:51.530|56=Acceptor|10=249|
8=FIX.4.4|9=61|35=0|34=67|49=Acceptor|52=20191218-09:07:51.887|56=Initiator|10=008|
8=FIX.4.4|9=61|35=0|34=68|49=Initiator|52=20191218-09:07:57.530|56=Acceptor|10=000|
8=FIX.4.4|9=61|35=0|34=68|49=Acceptor|52=20191218-09:07:57.888|56=Initiator|10=016|
8=FIX.4.4|9=61|35=0|34=69|49=Initiator|52=20191218-09:08:03.530|56=Acceptor|10=249|
8=FIX.4.4|9=61|35=0|34=69|49=Acceptor|52=20191218-09:08:03.888|56=Initiator|10=009|
8=FIX.4.4|9=61|35=0|34=70|49=Initiator|52=20191218-09:08:09.530|56=Acceptor|10=247|
8=FIX.4.4|9=61|35=0|34=70|49=Acceptor|52=20191218-09:08:09.886|56=Initiator|10=005|
8=FIX.4.4|9=61|35=0|34=71|49=Initiator|52=20191218-09:08:15.530|56=Acceptor|10=245|
8=FIX.4.4|9=61|35=0|34=71|49=Acceptor|52=20191218-09:08:15.888|56=Initiator|10=005|
8=FIX.4.4|9=61|35=0|34=72|49=Initiator|52=20191218-09:08:21.532|56=Acceptor|10=245|
8=FIX.4.4|9=61|35=0|34=72|49=Acceptor|52=20191218-09:08:21.886|56=Initiator|10=001|
8=FIX.4.4|9=61|35=0|34=73|49=Initiator|52=20191218-09:08:27.531|56=Acceptor|10=251|
8=FIX.4.4|9=61|35=0|34=73|49=Acceptor|52=20191218-09:08:27.888|56=Initiator|10=010|
8=FIX.4.4|9=61|35=0|34=74|49=Initiator|52=20191218-09:08:33.530|56=Acceptor|10=248|
8=FIX.4.4|9=61|35=0|34=74|49=Acceptor|52=20191218-09:08:33.888|56=Initiator|10=008|
8=FIX.4.4|9=61|35=0|34=75|49=Initiator|52=20191218-09:08:39.530|56=Acceptor|10=255|
8=FIX.4.4|9=61|35=0|34=75|49=Acceptor|52=20191218-09:08:39.887|56=Initiator|10=014|
8=FIX.4.4|9=61|35=0|34=76|49=Initiator|52=20191218-09:08:45.531|56=Acceptor|10=254|
8=FIX.4.4|9=61|35=0|34=76|49=Acceptor|52=20191218-09:08:45.887|56=Initiator|10=012|
8=FIX.4.4|9=61|35=0|34=77|49=Initiator|52=20191218-09:08:51.530|56=Acceptor|10=251|
8=FIX.4.4|9=61|35=0|34=77|49=Acceptor|52=20191218-09:08:51.888|56=Initiator|10=011|
8=FIX.4.4|9=61|35=0|34=78|49=Initiator|52=20191218-09:08:57.531|56=Acceptor|10=003|
8=FIX.4.4|9=61|35=0|34=78|49=Acceptor|52=20191218-09:08:57.888|56=Initiator|10=018|
8=FIX.4.4|9=61|35=0|34=79|49=Initiator|52=20191218-09:09:03.530|56=Acceptor|10=251|
8=FIX.4.4|9=61|35=0|34=79|49=Acceptor|52=20191218-09:09:03.887|56=Initiator|10=010|
8=FIX.4.4|9=61|35=0|34=80|49=Initiator|52=20191218-09:09:09.531|56=Acceptor|10=250|
8=FIX.4.4|9=61|35=0|34=80|49=Acceptor|52=20191218-09:09:09.888|56=Initiator|10=009|
8=FIX.4.4|9=61|35=0|34=81|49=Initiator|52=20191218-09:09:15.531|56=Acceptor|10=248|
8=FIX.4.4|9=61|35=0|34=81|49=Acceptor|52=20191218-09:09:15.887|56=Initiator|10=006|
8=FIX.4.4|9=61|35=0|34=82|49=Initiator|52=20191218-09:09:21.531|56=Acceptor|10=246|
8=FIX.4.4|9=61|35=0|34=82|49=Acceptor|52=20191218-09:09:21.887|56=Initiator|10=004|
8=FIX.4.4|9=61|35=0|34=83|49=Initiator|52=20191218-09:09:27.532|56=Acceptor|10=254|
8=FIX.4.4|9=61|35=0|34=83|49=Acceptor|52=20191218-09:09:27.887|56=Initiator|10=011|
8=FIX.4.4|9=61|35=0|34=84|49=Initiator|52=20191218-09:09:33.530|56=Acceptor|10=250|
8=FIX.4.4|9=61|35=0|34=84|49=Acceptor|52=20191218-09:09:33.887|56=Initiator|10=009|
8=FIX.4.4|9=61|35=0|34=85|49=Initiator|52=20191218-09:09:39.530|56=Acceptor|10=001|
8=FIX.4.4|9=61|35=0|34=85|49=Acceptor|52=20191218-09:09:39.888|56=Initiator|10=017|
8=FIX.4.4|9=61|35=0|34=86|49=Initiator|52=20191218-09:09:45.531|56=Acceptor|10=000|
8=FIX.4.4|9=61|35=0|34=86|49=Acceptor|52=20191218-09:09:45.887|56=Initiator|10=014|
8=FIX.4.4|9=61|35=0|34=87|49=Initiator|52=20191218-09:09:51.531|56=Acceptor|10=254|
8=FIX.4.4|9=61|35=0|34=87|49=Acceptor|52=20191218-09:09:51.887|56=Initiator|10=012|
8=FIX.4.4|9=61|35=0|34=88|49=Initiator|52=20191218-09:09:57.530|56=Acceptor|10=004|
8=FIX.4.4|9=61|35=0|34=88|49=Acceptor|52=20191218-09:09:57.886|56=Initiator|10=018|
8=FIX.4.4|9=61|35=0|34=89|49=Initiator|52=20191218-09:10:03.531|56=Acceptor|10=245|
8=FIX.4.4|9=61|35=0|34=89|49=Acceptor|52=20191218-09:10:03.887|56=Initiator|10=003|
8=FIX.4.4|9=61|35=0|34=90|49=Initiator|52=20191218-09:10:09.530|56=Acceptor|10=242|
8=FIX.4.4|9=61|35=0|34=90|49=Acceptor|52=20191218-09:10:09.887|56=Initiator|10=001|
8=FIX.4.4|9=61|35=0|34=91|49=Initiator|52=20191218-09:10:15.531|56=Acceptor|10=241|
8=FIX.4.4|9=61|35=0|34=91|49=Acceptor|52=20191218-09:10:15.888|56=Initiator|10=000|
8=FIX.4.4|9=61|35=0|34=92|49=Initiator|52=20191218-09:10:21.530|56=Acceptor|10=238|
8=FIX.4.4|9=61|35=0|34=92|49=Acceptor|52=20191218-09:10:21.887|56=Initiator|10=253|
8=FIX.4.4|9=61|35=0|34=93|49=Initiator|52=20191218-09:10:27.530|56=Acceptor|10=245|
8=FIX.4.4|9=61|35=0|34=93|49=Acceptor|52=20191218-09:10:27.887|56=Initiator|10=004|
8=FIX.4.4|9=61|35=0|34=94|49=Initiator|52=20191218-09:10:33.530|56=Acceptor|10=243|
8=FIX.4.4|9=61|35=0|34=94|49=Acceptor|52=20191218-09:10:33.887|56=Initiator|10=002|
8=FIX.4.4|9=61|35=0|34=95|49=Initiator|52=20191218-09:10:39.531|56=Acceptor|10=251|
8=FIX.4.4|9=61|35=0|34=95|49=Acceptor|52=20191218-09:10:39.888|56=Initiator|10=010|
8=FIX.4.4|9=61|35=0|34=96|49=Initiator|52=20191218-09:10:45.530|56=Acceptor|10=248|
8=FIX.4.4|9=61|35=0|34=96|49=Acceptor|52=20191218-09:10:45.887|56=Initiator|10=007|
8=FIX.4.4|9=61|35=0|34=97|49=Initiator|52=20191218-09:10:51.531|56=Acceptor|10=247|
8=FIX.4.4|9=61|35=0|34=97|49=Acceptor|52=20191218-09:10:51.887|56=Initiator|10=005|
8=FIX.4.4|9=61|35=0|34=98|49=Initiator|52=20191218-09:10:57.531|56=Acceptor|10=254|
8=FIX.4.4|9=61|35=0|34=98|49=Acceptor|52=20191218-09:10:57.888|56=Initiator|10=013|
8=FIX.4.4|9=61|35=0|34=99|49=Initiator|52=20191218-09:11:03.530|56=Acceptor|10=246|
8=FIX.4.4|9=61|35=0|34=99|49=Acceptor|52=20191218-09:11:03.888|56=Initiator|10=006|
8=FIX.4.4|9=62|35=0|34=100|49=Initiator|52=20191218-09:11:09.530|56=Acceptor|10=028|
8=FIX.4.4|9=62|35=0|34=100|49=Acceptor|52=20191218-09:11:09.887|56=Initiator|10=043|
8=FIX.4.4|9=62|35=0|34=101|49=Initiator|52=20191218-09:11:15.530|56=Acceptor|10=026|
8=FIX.4.4|9=62|35=0|34=101|49=Acceptor|52=20191218-09:11:15.887|56=Initiator|10=041|
8=FIX.4.4|9=62|35=0|34=102|49=Initiator|52=20191218-09:11:21.531|56=Acceptor|10=025|
8=FIX.4.4|9=62|35=0|34=102|49=Acceptor|52=20191218-09:11:21.886|56=Initiator|10=038|
8=FIX.4.4|9=62|35=0|34=103|49=Initiator|52=20191218-09:11:27.530|56=Acceptor|10=031|
8=FIX.4.4|9=62|35=0|34=103|49=Acceptor|52=20191218-09:11:27.886|56=Initiator|10=045|
8=FIX.4.4|9=62|35=0|34=104|49=Initiator|52=20191218-09:11:33.532|56=Acceptor|10=031|
8=FIX.4.4|9=62|35=0|34=104|49=Acceptor|52=20191218-09:11:33.887|56=Initiator|10=044|
8=FIX.4.4|9=62|35=0|34=105|49=Initiator|52=20191218-09:11:39.531|56=Acceptor|10=037|
8=FIX.4.4|9=62|35=0|34=105|49=Acceptor|52=20191218-09:11:39.888|56=Initiator|10=052|
8=FIX.4.4|9=62|35=0|34=106|49=Initiator|52=20191218-09:11:45.532|56=Acceptor|10=036|
8=FIX.4.4|9=62|35=0|34=106|49=Acceptor|52=20191218-09:11:45.888|56=Initiator|10=050|
8=FIX.4.4|9=62|35=0|34=107|49=Initiator|52=20191218-09:11:51.530|56=Acceptor|10=032|
8=FIX.4.4|9=62|35=0|34=107|49=Acceptor|52=20191218-09:11:51.887|56=Initiator|10=047|
8=FIX.4.4|9=62|35=0|34=108|49=Initiator|52=20191218-09:11:57.531|56=Acceptor|10=040|
8=FIX.4.4|9=62|35=0|34=108|49=Acceptor|52=20191218-09:11:57.887|56=Initiator|10=054|
8=FIX.4.4|9=62|35=0|34=109|49=Initiator|52=20191218-09:12:03.531|56=Acceptor|10=033|
8=FIX.4.4|9=62|35=0|34=109|49=Acceptor|52=20191218-09:12:03.887|56=Initiator|10=047|
8=FIX.4.4|9=62|35=0|34=110|49=Initiator|52=20191218-09:12:09.531|56=Acceptor|10=031|
8=FIX.4.4|9=62|35=0|34=110|49=Acceptor|52=20191218-09:12:09.888|56=Initiator|10=046|
8=FIX.4.4|9=62|35=0|34=111|49=Initiator|52=20191218-09:12:15.530|56=Acceptor|10=028|
8=FIX.4.4|9=62|35=0|34=111|49=Acceptor|52=20191218-09:12:15.887|56=Initiator|10=043|
8=FIX.4.4|9=62|35=0|34=112|49=Initiator|52=20191218-09:12:21.531|56=Acceptor|10=027|
8=FIX.4.4|9=62|35=0|34=112|49=Acceptor|52=20191218-09:12:21.888|56=Initiator|10=042|
8=FIX.4.4|9=62|35=0|34=113|49=Initiator|52=20191218-09:12:27.530|56=Acceptor|10=033|
8=FIX.4.4|9=62|35=0|34=113|49=Acceptor|52=20191218-09:12:27.887|56=Initiator|10=048|
8=FIX.4.4|9=62|35=0|34=114|49=Initiator|52=20191218-09:12:33.531|56=Acceptor|10=032|
8=FIX.4.4|9=62|35=0|34=114|49=Acceptor|52=20191218-09:12:33.887|56=Initiator|10=046|
8=FIX.4.4|9=62|35=0|34=115|49=Initiator|52=20191218-09:12:39.530|56=Acceptor|10=038|
8=FIX.4.4|9=62|35=0|34=115|49=Acceptor|52=20191218-09:12:39.886|56=Initiator|10=052|
8=FIX.4.4|9=62|35=0|34=116|49=Initiator|52=20191218-09:12:45.530|56=Acceptor|10=036|
8=FIX.4.4|9=62|35=0|34=116|49=Acceptor|52=20191218-09:12:45.887|56=Initiator|10=051|
8=FIX.4.4|9=62|35=0|34=117|49=Initiator|52=20191218-09:12:51.530|56=Acceptor|10=034|
8=FIX.4.4|9=62|35=0|34=117|49=Acceptor|52=20191218-09:12:51.887|56=Initiator|10=049|
8=FIX.4.4|9=62|35=0|34=118|49=Initiator|52=20191218-09:12:57.531|56=Acceptor|10=042|
8=FIX.4.4|9=62|35=0|34=118|49=Acceptor|52=20191218-09:12:57.888|56=Initiator|10=057|
8=FIX.4.4|9=62|35=0|34=119|49=Initiator|52=20191218-09:13:03.531|56=Acceptor|10=035|
8=FIX.4.4|9=62|35=0|34=119|49=Acceptor|52=20191218-09:13:03.887|56=Initiator|10=049|
8=FIX.4.4|9=62|35=0|34=120|49=Initiator|52=20191218-09:13:09.530|56=Acceptor|10=032|
8=FIX.4.4|9=62|35=0|34=120|49=Acceptor|52=20191218-09:13:09.887|56=Initiator|10=047|
8=FIX.4.4|9=62|35=0|34=121|49=Initiator|52=20191218-09:13:15.530|56=Acceptor|10=030|
8=FIX.4.4|9=62|35=0|34=121|49=Acceptor|52=20191218-09:13:15.887|56=Initiator|10=045|
8=FIX.4.4|9=62|35=0|34=122|49=Initiator|52=20191218-09:13:21.531|56=Acceptor|10=029|
8=FIX.4.4|9=62|35=0|34=122|49=Acceptor|52=20191218-09:13:21.887|56=Initiator|10=043|
8=FIX.4.4|9=62|35=0|34=123|49=Initiator|52=20191218-09:13:27.530|56=Acceptor|10=035|
8=FIX.4.4|9=62|35=0|34=123|49=Acceptor|52=20191218-09:13:27.887|56=Initiator|10=050|
8=FIX.4.4|9=62|35=0|34=124|49=Initiator|52=20191218-09:13:33.530|56=Acceptor|10=033|
8=FIX.4.4|9=62|35=0|34=124|49=Acceptor|52=20191218-09:13:33.887|56=Initiator|10=048|
8=FIX.4.4|9=62|35=0|34=125|49=Initiator|52=20191218-09:13:39.530|56=Acceptor|10=040|
8=FIX.4.4|9=62|35=0|34=125|49=Acceptor|52=20191218-09:13:39.888|56=Initiator|10=056|
8=FIX.4.4|9=62|35=0|34=126|49=Initiator|52=20191218-09:13:45.530|56=Acceptor|10=038|
8=FIX.4.4|9=62|35=0|34=126|49=Acceptor|52=20191218-09:13:45.887|56=Initiator|10=053|
8=FIX.4.4|9=62|35=0|34=127|49=Initiator|52=20191218-09:13:51.530|56=Acceptor|10=036|
8=FIX.4.4|9=62|35=0|34=127|49=Acceptor|52=20191218-09:13:51.887|56=Initiator|10=051|
8=FIX.4.4|9=62|35=0|34=128|49=Initiator|52=20191218-09:13:57.531|56=Acceptor|10=044|
8=FIX.4.4|9=62|35=0|34=128|49=Acceptor|52=20191218-09:13:57.887|56=Initiator|10=058|
8=FIX.4.4|9=62|35=0|34=129|49=Initiator|52=20191218-09:14:03.531|56=Acceptor|10=037|
8=FIX.4.4|9=62|35=0|34=129|49=Acceptor|52=20191218-09:14:03.887|56=Initiator|10=051|
8=FIX.4.4|9=62|35=0|34=130|49=Initiator|52=20191218-09:14:09.530|56=Acceptor|10=034|
8=FIX.4.4|9=62|35=0|34=130|49=Acceptor|52=20191218-09:14:09.888|56=Initiator|10=050|
8=FIX.4.4|9=62|35=0|34=131|49=Initiator|52=20191218-09:14:15.530|56=Acceptor|10=032|
8=FIX.4.4|9=62|35=0|34=131|49=Acceptor|52=20191218-09:14:15.887|56=Initiator|10=047|
8=FIX.4.4|9=62|35=0|34=132|49=Initiator|52=20191218-09:14:21.530|56=Acceptor|10=030|
8=FIX.4.4|9=62|35=0|34=132|49=Acceptor|52=20191218-09:14:21.888|56=Initiator|10=046|
8=FIX.4.4|9=62|35=0|34=133|49=Initiator|52=20191218-09:14:27.530|56=Acceptor|10=037|
8=FIX.4.4|9=62|35=0|34=133|49=Acceptor|52=20191218-09:14:27.886|56=Initiator|10=051|
8=FIX.4.4|9=62|35=0|34=134|49=Initiator|52=20191218-09:14:33.531|56=Acceptor|10=036|
8=FIX.4.4|9=62|35=0|34=134|49=Acceptor|52=20191218-09:14:33.886|56=Initiator|10=049|
8=FIX.4.4|9=62|35=0|34=135|49=Initiator|52=20191218-09:14:39.530|56=Acceptor|10=042|
8=FIX.4.4|9=62|35=0|34=135|49=Acceptor|52=20191218-09:14:39.886|56=Initiator|10=056|
8=FIX.4.4|9=62|35=0|34=136|49=Initiator|52=20191218-09:14:45.529|56=Acceptor|10=048|
8=FIX.4.4|9=62|35=0|34=136|49=Acceptor|52=20191218-09:14:45.886|56=Initiator|10=054|
8=FIX.4.4|9=62|35=0|34=137|49=Initiator|52=20191218-09:14:51.530|56=Acceptor|10=038|
8=FIX.4.4|9=62|35=0|34=137|49=Acceptor|52=20191218-09:14:51.886|56=Initiator|10=052|
8=FIX.4.4|9=62|35=0|34=138|49=Initiator|52=20191218-09:14:57.530|56=Acceptor|10=045|
8=FIX.4.4|9=62|35=0|34=138|49=Acceptor|52=20191218-09:14:57.888|56=Initiator|10=061|
8=FIX.4.4|9=62|35=0|34=139|49=Initiator|52=20191218-09:15:03.531|56=Acceptor|10=039|
8=FIX.4.4|9=62|35=0|34=139|49=Acceptor|52=20191218-09:15:03.887|56=Initiator|10=053|
8=FIX.4.4|9=62|35=0|34=140|49=Initiator|52=20191218-09:15:09.530|56=Acceptor|10=036|
8=FIX.4.4|9=62|35=0|34=140|49=Acceptor|52=20191218-09:15:09.888|56=Initiator|10=052|
8=FIX.4.4|9=62|35=0|34=141|49=Initiator|52=20191218-09:15:15.530|56=Acceptor|10=034|
8=FIX.4.4|9=62|35=0|34=141|49=Acceptor|52=20191218-09:15:15.887|56=Initiator|10=049|
8=FIX.4.4|9=62|35=0|34=142|49=Initiator|52=20191218-09:15:21.531|56=Acceptor|10=033|
8=FIX.4.4|9=62|35=0|34=142|49=Acceptor|52=20191218-09:15:21.887|56=Initiator|10=047|
8=FIX.4.4|9=62|35=0|34=143|49=Initiator|52=20191218-09:15:27.530|56=Acceptor|10=039|
8=FIX.4.4|9=62|35=0|34=143|49=Acceptor|52=20191218-09:15:27.888|56=Initiator|10=055|
8=FIX.4.4|9=62|35=0|34=144|49=Initiator|52=20191218-09:15:33.530|56=Acceptor|10=037|
8=FIX.4.4|9=62|35=0|34=144|49=Acceptor|52=20191218-09:15:33.887|56=Initiator|10=052|
8=FIX.4.4|9=62|35=0|34=145|49=Initiator|52=20191218-09:15:39.530|56=Acceptor|10=044|
8=FIX.4.4|9=62|35=0|34=145|49=Acceptor|52=20191218-09:15:39.887|56=Initiator|10=059|
8=FIX.4.4|9=62|35=0|34=146|49=Initiator|52=20191218-09:15:45.530|56=Acceptor|10=042|
8=FIX.4.4|9=62|35=0|34=146|49=Acceptor|52=20191218-09:15:45.887|56=Initiator|10=057|
8=FIX.4.4|9=62|35=0|34=147|49=Initiator|52=20191218-09:15:51.530|56=Acceptor|10=040|
8=FIX.4.4|9=62|35=0|34=147|49=Acceptor|52=20191218-09:15:51.888|56=Initiator|10=056|
8=FIX.4.4|9=62|35=0|34=148|49=Initiator|52=20191218-09:15:57.531|56=Acceptor|10=048|
8=FIX.4.4|9=62|35=0|34=148|49=Acceptor|52=20191218-09:15:57.887|56=Initiator|10=062|
8=FIX.4.4|9=62|35=0|34=149|49=Initiator|52=20191218-09:16:03.531|56=Acceptor|10=041|
8=FIX.4.4|9=62|35=0|34=149|49=Acceptor|52=20191218-09:16:03.888|56=Initiator|10=056|
8=FIX.4.4|9=62|35=0|34=150|49=Initiator|52=20191218-09:16:09.530|56=Acceptor|10=038|
8=FIX.4.4|9=62|35=0|34=150|49=Acceptor|52=20191218-09:16:09.887|56=Initiator|10=053|
8=FIX.4.4|9=62|35=0|34=151|49=Initiator|52=20191218-09:16:15.531|56=Acceptor|10=037|
8=FIX.4.4|9=62|35=0|34=151|49=Acceptor|52=20191218-09:16:15.887|56=Initiator|10=051|
8=FIX.4.4|9=62|35=0|34=152|49=Initiator|52=20191218-09:16:21.531|56=Acceptor|10=035|
8=FIX.4.4|9=62|35=0|34=152|49=Acceptor|52=20191218-09:16:21.887|56=Initiator|10=049|
8=FIX.4.4|9=62|35=0|34=153|49=Initiator|52=20191218-09:16:27.531|56=Acceptor|10=042|
8=FIX.4.4|9=62|35=0|34=153|49=Acceptor|52=20191218-09:16:27.887|56=Initiator|10=056|
8=FIX.4.4|9=62|35=0|34=154|49=Initiator|52=20191218-09:16:33.532|56=Acceptor|10=041|
8=FIX.4.4|9=62|35=0|34=154|49=Acceptor|52=20191218-09:16:33.912|56=Initiator|10=043|
8=FIX.4.4|9=62|35=0|34=155|49=Initiator|52=20191218-09:16:39.531|56=Acceptor|10=047|
8=FIX.4.4|9=62|35=0|34=155|49=Acceptor|52=20191218-09:16:40.886|56=Initiator|10=052|
8=FIX.4.4|9=62|35=0|34=156|49=Initiator|52=20191218-09:16:45.530|56=Acceptor|10=044|
8=FIX.4.4|9=62|35=0|34=156|49=Acceptor|52=20191218-09:16:46.887|56=Initiator|10=060|
8=FIX.4.4|9=62|35=0|34=157|49=Initiator|52=20191218-09:16:51.530|56=Acceptor|10=042|
8=FIX.4.4|9=62|35=0|34=157|49=Acceptor|52=20191218-09:16:52.887|56=Initiator|10=058|
8=FIX.4.4|9=62|35=0|34=158|49=Initiator|52=20191218-09:16:57.531|56=Acceptor|10=050|
8=FIX.4.4|9=62|35=0|34=158|49=Acceptor|52=20191218-09:16:58.886|56=Initiator|10=064|
8=FIX.4.4|9=62|35=0|34=159|49=Initiator|52=20191218-09:17:03.531|56=Acceptor|10=043|
8=FIX.4.4|9=62|35=0|34=159|49=Acceptor|52=20191218-09:17:04.887|56=Initiator|10=058|
8=FIX.4.4|9=62|35=0|34=160|49=Initiator|52=20191218-09:17:09.531|56=Acceptor|10=041|
8=FIX.4.4|9=62|35=0|34=160|49=Acceptor|52=20191218-09:17:10.887|56=Initiator|10=047|
8=FIX.4.4|9=62|35=0|34=161|49=Initiator|52=20191218-09:17:15.531|56=Acceptor|10=039|
8=FIX.4.4|9=62|35=0|34=161|49=Acceptor|52=20191218-09:17:16.887|56=Initiator|10=054|
8=FIX.4.4|9=62|35=0|34=162|49=Initiator|52=20191218-09:17:21.530|56=Acceptor|10=036|
8=FIX.4.4|9=62|35=0|34=162|49=Acceptor|52=20191218-09:17:22.887|56=Initiator|10=052|
8=FIX.4.4|9=62|35=0|34=163|49=Initiator|52=20191218-09:17:27.531|56=Acceptor|10=044|
8=FIX.4.4|9=62|35=0|34=163|49=Acceptor|52=20191218-09:17:28.886|56=Initiator|10=058|
8=FIX.4.4|9=62|35=0|34=164|49=Initiator|52=20191218-09:17:33.531|56=Acceptor|10=042|
8=FIX.4.4|9=62|35=0|34=164|49=Acceptor|52=20191218-09:17:34.887|56=Initiator|10=057|
8=FIX.4.4|9=62|35=0|34=165|49=Initiator|52=20191218-09:17:39.531|56=Acceptor|10=049|
8=FIX.4.4|9=62|35=0|34=165|49=Acceptor|52=20191218-09:17:40.888|56=Initiator|10=056|
8=FIX.4.4|9=62|35=0|34=166|49=Initiator|52=20191218-09:17:45.531|56=Acceptor|10=047|
8=FIX.4.4|9=62|35=0|34=166|49=Acceptor|52=20191218-09:17:46.886|56=Initiator|10=061|
8=FIX.4.4|9=62|35=0|34=167|49=Initiator|52=20191218-09:17:51.530|56=Acceptor|10=044|
8=FIX.4.4|9=62|35=0|34=167|49=Acceptor|52=20191218-09:17:52.888|56=Initiator|10=061|
8=FIX.4.4|9=62|35=0|34=168|49=Initiator|52=20191218-09:17:57.531|56=Acceptor|10=052|
8=FIX.4.4|9=62|35=0|34=168|49=Acceptor|52=20191218-09:17:58.887|56=Initiator|10=067|
8=FIX.4.4|9=62|35=0|34=169|49=Initiator|52=20191218-09:18:03.531|56=Acceptor|10=045|
8=FIX.4.4|9=62|35=0|34=169|49=Acceptor|52=20191218-09:18:04.887|56=Initiator|10=060|
8=FIX.4.4|9=62|35=0|34=170|49=Initiator|52=20191218-09:18:09.530|56=Acceptor|10=042|
8=FIX.4.4|9=62|35=0|34=170|49=Acceptor|52=20191218-09:18:10.888|56=Initiator|10=050|
8=FIX.4.4|9=62|35=0|34=171|49=Initiator|52=20191218-09:18:15.531|56=Acceptor|10=041|
8=FIX.4.4|9=62|35=0|34=171|49=Acceptor|52=20191218-09:18:16.887|56=Initiator|10=056|
8=FIX.4.4|9=62|35=0|34=172|49=Initiator|52=20191218-09:18:21.531|56=Acceptor|10=039|
8=FIX.4.4|9=62|35=0|34=172|49=Acceptor|52=20191218-09:18:22.887|56=Initiator|10=054|
8=FIX.4.4|9=62|35=0|34=173|49=Initiator|52=20191218-09:18:27.530|56=Acceptor|10=045|
8=FIX.4.4|9=62|35=0|34=173|49=Acceptor|52=20191218-09:18:28.888|56=Initiator|10=062|
8=FIX.4.4|9=62|35=0|34=174|49=Initiator|52=20191218-09:18:33.530|56=Acceptor|10=043|
8=FIX.4.4|9=62|35=0|34=174|49=Acceptor|52=20191218-09:18:34.887|56=Initiator|10=059|
8=FIX.4.4|9=62|35=0|34=175|49=Initiator|52=20191218-09:18:39.531|56=Acceptor|10=051|
8=FIX.4.4|9=62|35=0|34=175|49=Acceptor|52=20191218-09:18:40.887|56=Initiator|10=057|
8=FIX.4.4|9=62|35=0|34=176|49=Initiator|52=20191218-09:18:45.530|56=Acceptor|10=048|
8=FIX.4.4|9=62|35=0|34=176|49=Acceptor|52=20191218-09:18:46.886|56=Initiator|10=063|
8=FIX.4.4|9=62|35=0|34=177|49=Initiator|52=20191218-09:18:51.531|56=Acceptor|10=047|
8=FIX.4.4|9=62|35=0|34=177|49=Acceptor|52=20191218-09:18:52.888|56=Initiator|10=063|
8=FIX.4.4|9=62|35=0|34=178|49=Initiator|52=20191218-09:18:57.530|56=Acceptor|10=053|
8=FIX.4.4|9=62|35=0|34=178|49=Acceptor|52=20191218-09:18:58.887|56=Initiator|10=069|
8=FIX.4.4|9=62|35=0|34=179|49=Initiator|52=20191218-09:19:03.530|56=Acceptor|10=046|
8=FIX.4.4|9=62|35=0|34=179|49=Acceptor|52=20191218-09:19:04.887|56=Initiator|10=062|
8=FIX.4.4|9=62|35=0|34=180|49=Initiator|52=20191218-09:19:09.531|56=Acceptor|10=045|
8=FIX.4.4|9=62|35=0|34=180|49=Acceptor|52=20191218-09:19:10.887|56=Initiator|10=051|
8=FIX.4.4|9=62|35=0|34=181|49=Initiator|52=20191218-09:19:15.530|56=Acceptor|10=042|
8=FIX.4.4|9=62|35=0|34=181|49=Acceptor|52=20191218-09:19:16.887|56=Initiator|10=058|
8=FIX.4.4|9=62|35=0|34=182|49=Initiator|52=20191218-09:19:21.532|56=Acceptor|10=042|
8=FIX.4.4|9=62|35=0|34=182|49=Acceptor|52=20191218-09:19:22.887|56=Initiator|10=056|
8=FIX.4.4|9=62|35=0|34=183|49=Initiator|52=20191218-09:19:27.530|56=Acceptor|10=047|
8=FIX.4.4|9=62|35=0|34=183|49=Acceptor|52=20191218-09:19:28.887|56=Initiator|10=063|
8=FIX.4.4|9=62|35=0|34=184|49=Initiator|52=20191218-09:19:33.531|56=Acceptor|10=046|
8=FIX.4.4|9=62|35=0|34=184|49=Acceptor|52=20191218-09:19:34.887|56=Initiator|10=061|
8=FIX.4.4|9=62|35=0|34=185|49=Initiator|52=20191218-09:19:39.532|56=Acceptor|10=054|
8=FIX.4.4|9=62|35=0|34=185|49=Acceptor|52=20191218-09:19:40.887|56=Initiator|10=059|
8=FIX.4.4|9=62|35=0|34=186|49=Initiator|52=20191218-09:19:45.531|56=Acceptor|10=051|
8=FIX.4.4|9=62|35=0|34=186|49=Acceptor|52=20191218-09:19:46.887|56=Initiator|10=066|
8=FIX.4.4|9=62|35=0|34=187|49=Initiator|52=20191218-09:19:51.530|56=Acceptor|10=048|
8=FIX.4.4|9=62|35=0|34=187|49=Acceptor|52=20191218-09:19:52.886|56=Initiator|10=063|
8=FIX.4.4|9=62|35=0|34=188|49=Initiator|52=20191218-09:19:57.531|56=Acceptor|10=056|
8=FIX.4.4|9=62|35=0|34=188|49=Acceptor|52=20191218-09:19:58.887|56=Initiator|10=071|
8=FIX.4.4|9=62|35=0|34=189|49=Initiator|52=20191218-09:20:03.531|56=Acceptor|10=040|
8=FIX.4.4|9=62|35=0|34=189|49=Acceptor|52=20191218-09:20:04.887|56=Initiator|10=055|
8=FIX.4.4|9=62|35=0|34=190|49=Initiator|52=20191218-09:20:09.531|56=Acceptor|10=038|
8=FIX.4.4|9=62|35=0|34=190|49=Acceptor|52=20191218-09:20:10.887|56=Initiator|10=044|
8=FIX.4.4|9=62|35=0|34=191|49=Initiator|52=20191218-09:20:15.530|56=Acceptor|10=035|
8=FIX.4.4|9=62|35=0|34=191|49=Acceptor|52=20191218-09:20:16.887|56=Initiator|10=051|
8=FIX.4.4|9=62|35=0|34=192|49=Initiator|52=20191218-09:20:21.530|56=Acceptor|10=033|
8=FIX.4.4|9=62|35=0|34=192|49=Acceptor|52=20191218-09:20:22.888|56=Initiator|10=050|
8=FIX.4.4|9=62|35=0|34=193|49=Initiator|52=20191218-09:20:27.530|56=Acceptor|10=040|
8=FIX.4.4|9=62|35=0|34=193|49=Acceptor|52=20191218-09:20:28.887|56=Initiator|10=056|
8=FIX.4.4|9=62|35=0|34=194|49=Initiator|52=20191218-09:20:33.530|56=Acceptor|10=038|
8=FIX.4.4|9=62|35=0|34=194|49=Acceptor|52=20191218-09:20:34.887|56=Initiator|10=054|
8=FIX.4.4|9=62|35=0|34=195|49=Initiator|52=20191218-09:20:39.530|56=Acceptor|10=045|
8=FIX.4.4|9=62|35=0|34=195|49=Acceptor|52=20191218-09:20:40.888|56=Initiator|10=053|
8=FIX.4.4|9=62|35=0|34=196|49=Initiator|52=20191218-09:20:45.531|56=Acceptor|10=044|
8=FIX.4.4|9=62|35=0|34=196|49=Acceptor|52=20191218-09:20:46.887|56=Initiator|10=059|
8=FIX.4.4|9=62|35=0|34=197|49=Initiator|52=20191218-09:20:51.531|56=Acceptor|10=042|
8=FIX.4.4|9=62|35=0|34=197|49=Acceptor|52=20191218-09:20:52.887|56=Initiator|10=057|
8=FIX.4.4|9=62|35=0|34=198|49=Initiator|52=20191218-09:20:57.531|56=Acceptor|10=049|
8=FIX.4.4|9=62|35=0|34=198|49=Acceptor|52=20191218-09:20:58.888|56=Initiator|10=065|
8=FIX.4.4|9=62|35=0|34=199|49=Initiator|52=20191218-09:21:03.531|56=Acceptor|10=042|
8=FIX.4.4|9=62|35=0|34=199|49=Acceptor|52=20191218-09:21:04.886|56=Initiator|10=056|
8=FIX.4.4|9=62|35=0|34=200|49=Initiator|52=20191218-09:21:09.530|56=Acceptor|10=030|
8=FIX.4.4|9=62|35=0|34=200|49=Acceptor|52=20191218-09:21:10.888|56=Initiator|10=038|
8=FIX.4.4|9=62|35=0|34=201|49=Initiator|52=20191218-09:21:15.530|56=Acceptor|10=028|
8=FIX.4.4|9=62|35=0|34=201|49=Acceptor|52=20191218-09:21:16.888|56=Initiator|10=045|
8=FIX.4.4|9=62|35=0|34=202|49=Initiator|52=20191218-09:21:21.530|56=Acceptor|10=026|
8=FIX.4.4|9=62|35=0|34=202|49=Acceptor|52=20191218-09:21:22.888|56=Initiator|10=043|
8=FIX.4.4|9=77|35=A|34=1|49=Initiator|52=20191218-10:21:25.392|56=Acceptor|98=0|108=6|141=Y|10=233|
8=FIX.4.4|9=77|35=A|34=1|49=Acceptor|52=20191218-10:21:25.701|56=Initiator|98=0|108=6|141=Y|10=227|
8=FIX.4.4|9=60|35=0|34=2|49=Initiator|52=20191218-10:21:31.391|56=Acceptor|10=180|
8=FIX.4.4|9=60|35=0|34=2|49=Acceptor|52=20191218-10:21:31.749|56=Initiator|10=187|
8=FIX.4.4|9=60|35=0|34=3|49=Initiator|52=20191218-10:21:37.391|56=Acceptor|10=187|
8=FIX.4.4|9=60|35=0|34=3|49=Acceptor|52=20191218-10:21:37.749|56=Initiator|10=194|
8=FIX.4.4|9=60|35=0|34=4|49=Initiator|52=20191218-10:21:43.391|56=Acceptor|10=185|
8=FIX.4.4|9=60|35=0|34=4|49=Acceptor|52=20191218-10:21:43.749|56=Initiator|10=192|
8=FIX.4.4|9=60|35=0|34=5|49=Initiator|52=20191218-10:21:49.391|56=Acceptor|10=192|
8=FIX.4.4|9=60|35=0|34=5|49=Acceptor|52=20191218-10:21:49.749|56=Initiator|10=199|
8=FIX.4.4|9=60|35=0|34=6|49=Initiator|52=20191218-10:21:55.391|56=Acceptor|10=190|
8=FIX.4.4|9=60|35=0|34=6|49=Acceptor|52=20191218-10:21:55.749|56=Initiator|10=197|
8=FIX.4.4|9=60|35=0|34=7|49=Initiator|52=20191218-10:22:01.392|56=Acceptor|10=184|
8=FIX.4.4|9=60|35=0|34=7|49=Acceptor|52=20191218-10:22:01.749|56=Initiator|10=190|
8=FIX.4.4|9=60|35=0|34=8|49=Initiator|52=20191218-10:22:07.392|56=Acceptor|10=191|
8=FIX.4.4|9=60|35=0|34=8|49=Acceptor|52=20191218-10:22:07.749|56=Initiator|10=197|
8=FIX.4.4|9=60|35=0|34=9|49=Initiator|52=20191218-10:22:13.392|56=Acceptor|10=189|
8=FIX.4.4|9=60|35=0|34=9|49=Acceptor|52=20191218-10:22:13.749|56=Initiator|10=195|
8=FIX.4.4|9=61|35=0|34=10|49=Initiator|52=20191218-10:22:19.392|56=Acceptor|10=236|
8=FIX.4.4|9=61|35=0|34=10|49=Acceptor|52=20191218-10:22:19.749|56=Initiator|10=242|
8=FIX.4.4|9=61|35=0|34=11|49=Initiator|52=20191218-10:22:25.391|56=Acceptor|10=233|
8=FIX.4.4|9=61|35=0|34=11|49=Acceptor|52=20191218-10:22:25.749|56=Initiator|10=240|
8=FIX.4.4|9=61|35=0|34=12|49=Initiator|52=20191218-10:22:31.391|56=Acceptor|10=231|
8=FIX.4.4|9=61|35=0|34=12|49=Acceptor|52=20191218-10:22:31.749|56=Initiator|10=238|
8=FIX.4.4|9=61|35=0|34=13|49=Initiator|52=20191218-10:22:37.393|56=Acceptor|10=240|
8=FIX.4.4|9=61|35=0|34=13|49=Acceptor|52=20191218-10:22:37.748|56=Initiator|10=244|
8=FIX.4.4|9=61|35=0|34=14|49=Initiator|52=20191218-10:22:43.393|56=Acceptor|10=238|
8=FIX.4.4|9=61|35=0|34=14|49=Acceptor|52=20191218-10:22:43.749|56=Initiator|10=243|
8=FIX.4.4|9=61|35=0|34=15|49=Initiator|52=20191218-10:22:49.393|56=Acceptor|10=245|
8=FIX.4.4|9=61|35=0|34=15|49=Acceptor|52=20191218-10:22:49.748|56=Initiator|10=249|
8=FIX.4.4|9=61|35=0|34=16|49=Initiator|52=20191218-10:22:55.393|56=Acceptor|10=243|
8=FIX.4.4|9=61|35=0|34=16|49=Acceptor|52=20191218-10:22:55.748|56=Initiator|10=247|
8=FIX.4.4|9=61|35=0|34=17|49=Initiator|52=20191218-10:23:01.392|56=Acceptor|10=235|
8=FIX.4.4|9=61|35=0|34=17|49=Acceptor|52=20191218-10:23:01.748|56=Initiator|10=240|
8=FIX.4.4|9=61|35=0|34=18|49=Initiator|52=20191218-10:23:07.392|56=Acceptor|10=242|
8=FIX.4.4|9=61|35=0|34=18|49=Acceptor|52=20191218-10:23:07.748|56=Initiator|10=247|
8=FIX.4.4|9=61|35=0|34=19|49=Initiator|52=20191218-10:23:13.391|56=Acceptor|10=239|
8=FIX.4.4|9=61|35=0|34=19|49=Acceptor|52=20191218-10:23:13.747|56=Initiator|10=244|
8=FIX.4.4|9=61|35=0|34=20|49=Initiator|52=20191218-10:23:19.392|56=Acceptor|10=238|
8=FIX.4.4|9=61|35=0|34=20|49=Acceptor|52=20191218-10:23:19.747|56=Initiator|10=242|
8=FIX.4.4|9=61|35=0|34=21|49=Initiator|52=20191218-10:23:25.392|56=Acceptor|10=236|
8=FIX.4.4|9=61|35=0|34=21|49=Acceptor|52=20191218-10:23:25.749|56=Initiator|10=242|
8=FIX.4.4|9=61|35=0|34=22|49=Initiator|52=20191218-10:23:31.392|56=Acceptor|10=234|
8=FIX.4.4|9=61|35=0|34=22|49=Acceptor|52=20191218-10:23:31.749|56=Initiator|10=240|
8=FIX.4.4|9=61|35=0|34=23|49=Initiator|52=20191218-10:23:37.392|56=Acceptor|10=241|
8=FIX.4.4|9=61|35=0|34=23|49=Acceptor|52=20191218-10:23:37.749|56=Initiator|10=247|
8=FIX.4.4|9=61|35=0|34=24|49=Initiator|52=20191218-10:23:43.392|56=Acceptor|10=239|
8=FIX.4.4|9=61|35=0|34=24|49=Acceptor|52=20191218-10:23:43.748|56=Initiator|10=244|
8=FIX.4.4|9=61|35=0|34=25|49=Initiator|52=20191218-10:23:49.392|56=Acceptor|10=246|
8=FIX.4.4|9=61|35=0|34=25|49=Acceptor|52=20191218-10:23:49.749|56=Initiator|10=252|
8=FIX.4.4|9=61|35=0|34=26|49=Initiator|52=20191218-10:23:55.392|56=Acceptor|10=244|
8=FIX.4.4|9=61|35=0|34=26|49=Acceptor|52=20191218-10:23:55.749|56=Initiator|10=250|
8=FIX.4.4|9=61|35=0|34=27|49=Initiator|52=20191218-10:24:01.391|56=Acceptor|10=236|
8=FIX.4.4|9=61|35=0|34=27|49=Acceptor|52=20191218-10:24:01.749|56=Initiator|10=243|
8=FIX.4.4|9=61|35=0|34=28|49=Initiator|52=20191218-10:24:07.391|56=Acceptor|10=243|
8=FIX.4.4|9=61|35=0|34=28|49=Acceptor|52=20191218-10:24:07.749|56=Initiator|10=250|
8=FIX.4.4|9=61|35=0|34=29|49=Initiator|52=20191218-10:24:13.391|56=Acceptor|10=241|
8=FIX.4.4|9=61|35=0|34=29|49=Acceptor|52=20191218-10:24:13.749|56=Initiator|10=248|
8=FIX.4.4|9=61|35=0|34=30|49=Initiator|52=20191218-10:24:19.391|56=Acceptor|10=239|
8=FIX.4.4|9=61|35=0|34=30|49=Acceptor|52=20191218-10:24:19.749|56=Initiator|10=246|
8=FIX.4.4|9=61|35=0|34=31|49=Initiator|52=20191218-10:24:25.391|56=Acceptor|10=237|
8=FIX.4.4|9=61|35=0|34=31|49=Acceptor|52=20191218-10:24:25.749|56=Initiator|10=244|
8=FIX.4.4|9=61|35=0|34=32|49=Initiator|52=20191218-10:24:31.391|56=Acceptor|10=235|
8=FIX.4.4|9=61|35=0|34=32|49=Acceptor|52=20191218-10:24:31.749|56=Initiator|10=242|
8=FIX.4.4|9=61|35=0|34=33|49=Initiator|52=20191218-10:24:37.391|56=Acceptor|10=242|
8=FIX.4.4|9=61|35=0|34=33|49=Acceptor|52=20191218-10:24:37.749|56=Initiator|10=249|
8=FIX.4.4|9=61|35=0|34=34|49=Initiator|52=20191218-10:24:43.391|56=Acceptor|10=240|
8=FIX.4.4|9=61|35=0|34=34|49=Acceptor|52=20191218-10:24:43.749|56=Initiator|10=247|
8=FIX.4.4|9=61|35=0|34=35|49=Initiator|52=20191218-10:24:49.393|56=Acceptor|10=249|
8=FIX.4.4|9=61|35=0|34=35|49=Acceptor|52=20191218-10:24:49.749|56=Initiator|10=254|
8=FIX.4.4|9=61|35=0|34=36|49=Initiator|52=20191218-10:24:55.393|56=Acceptor|10=247|
8=FIX.4.4|9=61|35=0|34=36|49=Acceptor|52=20191218-10:24:55.748|56=Initiator|10=251|
8=FIX.4.4|9=61|35=0|34=37|49=Initiator|52=20191218-10:25:01.393|56=Acceptor|10=240|
8=FIX.4.4|9=61|35=0|34=37|49=Acceptor|52=20191218-10:25:01.748|56=Initiator|10=244|
8=FIX.4.4|9=61|35=0|34=38|49=Initiator|52=20191218-10:25:07.393|56=Acceptor|10=247|
8=FIX.4.4|9=61|35=0|34=38|49=Acceptor|52=20191218-10:25:07.748|56=Initiator|10=251|
8=FIX.4.4|9=61|35=0|34=39|49=Initiator|52=20191218-10:25:13.393|56=Acceptor|10=245|
8=FIX.4.4|9=61|35=0|34=39|49=Acceptor|52=20191218-10:25:13.748|56=Initiator|10=249|
8=FIX.4.4|9=61|35=0|34=40|49=Initiator|52=20191218-10:25:19.392|56=Acceptor|10=242|
8=FIX.4.4|9=61|35=0|34=40|49=Acceptor|52=20191218-10:25:19.748|56=Initiator|10=247|
8=FIX.4.4|9=61|35=0|34=41|49=Initiator|52=20191218-10:25:25.392|56=Acceptor|10=240|
8=FIX.4.4|9=61|35=0|34=41|49=Acceptor|52=20191218-10:25:25.747|56=Initiator|10=244|
8=FIX.4.4|9=61|35=0|34=42|49=Initiator|52=20191218-10:25:31.392|56=Acceptor|10=238|
8=FIX.4.4|9=61|35=0|34=42|49=Acceptor|52=20191218-10:25:31.747|56=Initiator|10=242|
8=FIX.4.4|9=61|35=0|34=43|49=Initiator|52=20191218-10:25:37.392|56=Acceptor|10=245|
8=FIX.4.4|9=61|35=0|34=43|49=Acceptor|52=20191218-10:25:37.748|56=Initiator|10=250|
8=FIX.4.4|9=61|35=0|34=44|49=Initiator|52=20191218-10:25:43.392|56=Acceptor|10=243|
8=FIX.4.4|9=61|35=0|34=44|49=Acceptor|52=20191218-10:25:43.748|56=Initiator|10=248|
8=FIX.4.4|9=61|35=0|34=45|49=Initiator|52=20191218-10:25:49.392|56=Acceptor|10=250|
8=FIX.4.4|9=61|35=0|34=45|49=Acceptor|52=20191218-10:25:49.749|56=Initiator|10=000|
8=FIX.4.4|9=61|35=0|34=46|49=Initiator|52=20191218-10:25:55.392|56=Acceptor|10=248|
8=FIX.4.4|9=61|35=0|34=46|49=Acceptor|52=20191218-10:25:55.749|56=Initiator|10=254|
8=FIX.4.4|9=61|35=0|34=47|49=Initiator|52=20191218-10:26:01.391|56=Acceptor|10=240|
8=FIX.4.4|9=61|35=0|34=47|49=Acceptor|52=20191218-10:26:01.748|56=Initiator|10=246|
8=FIX.4.4|9=61|35=0|34=48|49=Initiator|52=20191218-10:26:07.391|56=Acceptor|10=247|
8=FIX.4.4|9=61|35=0|34=48|49=Acceptor|52=20191218-10:26:07.749|56=Initiator|10=254|
8=FIX.4.4|9=61|35=0|34=49|49=Initiator|52=20191218-10:26:13.391|56=Acceptor|10=245|
8=FIX.4.4|9=61|35=0|34=49|49=Acceptor|52=20191218-10:26:13.749|56=Initiator|10=252|
8=FIX.4.4|9=61|35=0|34=50|49=Initiator|52=20191218-10:26:19.391|56=Acceptor|10=243|
8=FIX.4.4|9=61|35=0|34=50|49=Acceptor|52=20191218-10:26:19.749|56=Initiator|10=250|
8=FIX.4.4|9=61|35=0|34=51|49=Initiator|52=20191218-10:26:25.391|56=Acceptor|10=241|
8=FIX.4.4|9=61|35=0|34=51|49=Acceptor|52=20191218-10:26:25.749|56=Initiator|10=248|
8=FIX.4.4|9=61|35=0|34=52|49=Initiator|52=20191218-10:26:31.391|56=Acceptor|10=239|
8=FIX.4.4|9=61|35=0|34=52|49=Acceptor|52=20191218-10:26:31.749|56=Initiator|10=246|
8=FIX.4.4|9=61|35=0|34=53|49=Initiator|52=20191218-10:26:37.391|56=Acceptor|10=246|
8=FIX.4.4|9=61|35=0|34=53|49=Acceptor|52=20191218-10:26:37.749|56=Initiator|10=253|
8=FIX.4.4|9=61|35=0|34=54|49=Initiator|52=20191218-10:26:43.391|56=Acceptor|10=244|
8=FIX.4.4|9=61|35=0|34=54|49=Acceptor|52=20191218-10:26:43.749|56=Initiator|10=251|
8=FIX.4.4|9=61|35=0|34=55|49=Initiator|52=20191218-10:26:49.391|56=Acceptor|10=251|
8=FIX.4.4|9=61|35=0|34=55|49=Acceptor|52=20191218-10:26:49.749|56=Initiator|10=002|
8=FIX.4.4|9=61|35=0|34=56|49=Initiator|52=20191218-10:26:55.393|56=Acceptor|10=251|
8=FIX.4.4|9=61|35=0|34=56|49=Acceptor|52=20191218-10:26:55.748|56=Initiator|10=255|
8=FIX.4.4|9=61|35=0|34=57|49=Initiator|52=20191218-10:27:01.392|56=Acceptor|10=243|
8=FIX.4.4|9=61|35=0|34=57|49=Acceptor|52=20191218-10:27:01.748|56=Initiator|10=248|
8=FIX.4.4|9=61|35=0|34=58|49=Initiator|52=20191218-10:27:07.393|56=Acceptor|10=251|
8=FIX.4.4|9=61|35=0|34=58|49=Acceptor|52=20191218-10:27:07.748|56=Initiator|10=255|
8=FIX.4.4|9=61|35=0|34=59|49=Initiator|52=20191218-10:27:13.392|56=Acceptor|10=248|
8=FIX.4.4|9=61|35=0|34=59|49=Acceptor|52=20191218-10:27:13.748|56=Initiator|10=253|
8=FIX.4.4|9=61|35=0|34=60|49=Initiator|52=20191218-10:27:19.392|56=Acceptor|10=246|
8=FIX.4.4|9=61|35=0|34=60|49=Acceptor|52=20191218-10:27:19.747|56=Initiator|10=250|
8=FIX.4.4|9=61|35=0|34=61|49=Initiator|52=20191218-10:27:25.392|56=Acceptor|10=244|
8=FIX.4.4|9=61|35=0|34=61|49=Acceptor|52=20191218-10:27:25.747|56=Initiator|10=248|
8=FIX.4.4|9=61|35=0|34=62|49=Initiator|52=20191218-10:27:31.392|56=Acceptor|10=242|
8=FIX.4.4|9=61|35=0|34=62|49=Acceptor|52=20191218-10:27:31.748|56=Initiator|10=247|
8=FIX.4.4|9=61|35=0|34=63|49=Initiator|52=20191218-10:27:37.391|56=Acceptor|10=248|
8=FIX.4.4|9=61|35=0|34=63|49=Acceptor|52=20191218-10:27:37.748|56=Initiator|10=254|
8=FIX.4.4|9=61|35=0|34=64|49=Initiator|52=20191218-10:27:43.391|56=Acceptor|10=246|
8=FIX.4.4|9=61|35=0|34=64|49=Acceptor|52=20191218-10:27:43.748|56=Initiator|10=252|
8=FIX.4.4|9=61|35=0|34=65|49=Initiator|52=20191218-10:27:49.391|56=Acceptor|10=253|
8=FIX.4.4|9=61|35=0|34=65|49=Acceptor|52=20191218-10:27:49.747|56=Initiator|10=002|
8=FIX.4.4|9=61|35=0|34=66|49=Initiator|52=20191218-10:27:55.391|56=Acceptor|10=251|
8=FIX.4.4|9=61|35=0|34=66|49=Acceptor|52=20191218-10:27:55.748|56=Initiator|10=001|
8=FIX.4.4|9=61|35=0|34=67|49=Initiator|52=20191218-10:28:01.392|56=Acceptor|10=245|
8=FIX.4.4|9=61|35=0|34=67|49=Acceptor|52=20191218-10:28:01.748|56=Initiator|10=250|
8=FIX.4.4|9=61|35=0|34=68|49=Initiator|52=20191218-10:28:07.391|56=Acceptor|10=251|
8=FIX.4.4|9=61|35=0|34=68|49=Acceptor|52=20191218-10:28:07.747|56=Initiator|10=000|
8=FIX.4.4|9=61|35=0|34=69|49=Initiator|52=20191218-10:28:13.393|56=Acceptor|10=251|
8=FIX.4.4|9=61|35=0|34=69|49=Acceptor|52=20191218-10:28:13.748|56=Initiator|10=255|
8=FIX.4.4|9=61|35=0|34=70|49=Initiator|52=20191218-10:28:19.391|56=Acceptor|10=247|
8=FIX.4.4|9=61|35=0|34=70|49=Acceptor|52=20191218-10:28:19.749|56=Initiator|10=254|
8=FIX.4.4|9=72|35=A|34=71|49=Initiator|52=20191218-10:56:34.398|56=Acceptor|98=0|108=6|10=252|
8=FIX.4.4|9=71|35=A|34=1|49=Acceptor|52=20191218-10:56:34.460|56=Initiator|98=0|108=6|10=186|
8=FIX.4.4|9=111|35=5|34=72|49=Initiator|52=20191218-10:56:34.518|56=Acceptor|58=MsgSeqNum too low, expecting 71 but received 1|10=246|
8=FIX.4.4|9=69|35=2|34=2|49=Acceptor|52=20191218-10:56:34.471|56=Initiator|7=1|16=0|10=068|
8=FIX.4.4|9=77|35=A|34=1|49=Initiator|52=20191218-10:57:04.380|56=Acceptor|98=0|108=6|141=Y|10=236|
8=FIX.4.4|9=77|35=A|34=1|49=Acceptor|52=20191218-10:57:04.479|56=Initiator|98=0|108=6|141=Y|10=245|
8=FIX.4.4|9=60|35=0|34=2|49=Initiator|52=20191218-10:57:10.379|56=Acceptor|10=192|
8=FIX.4.4|9=60|35=0|34=2|49=Acceptor|52=20191218-10:57:10.572|56=Initiator|10=187|
8=FIX.4.4|9=60|35=0|34=3|49=Initiator|52=20191218-10:57:16.378|56=Acceptor|10=198|
8=FIX.4.4|9=60|35=0|34=3|49=Acceptor|52=20191218-10:57:16.571|56=Initiator|10=193|
8=FIX.4.4|9=60|35=0|34=4|49=Initiator|52=20191218-10:57:22.379|56=Acceptor|10=197|
8=FIX.4.4|9=60|35=0|34=4|49=Acceptor|52=20191218-10:57:22.573|56=Initiator|10=193|
8=FIX.4.4|9=60|35=0|34=5|49=Initiator|52=20191218-10:57:28.378|56=Acceptor|10=203|
8=FIX.4.4|9=60|35=0|34=5|49=Acceptor|52=20191218-10:57:28.571|56=Initiator|10=198|
8=FIX.4.4|9=60|35=0|34=6|49=Initiator|52=20191218-10:57:34.378|56=Acceptor|10=201|
8=FIX.4.4|9=60|35=0|34=6|49=Acceptor|52=20191218-10:57:34.572|56=Initiator|10=197|
8=FIX.4.4|9=60|35=0|34=7|49=Initiator|52=20191218-10:57:40.379|56=Acceptor|10=200|
8=FIX.4.4|9=60|35=0|34=7|49=Acceptor|52=20191218-10:57:40.572|56=Initiator|10=195|
8=FIX.4.4|9=60|35=0|34=8|49=Initiator|52=20191218-10:57:46.378|56=Acceptor|10=206|
8=FIX.4.4|9=60|35=0|34=8|49=Acceptor|52=20191218-10:57:46.573|56=Initiator|10=203|
8=FIX.4.4|9=60|35=0|34=9|49=Initiator|52=20191218-10:57:52.378|56=Acceptor|10=204|
8=FIX.4.4|9=60|35=0|34=9|49=Acceptor|52=20191218-10:57:52.572|56=Initiator|10=200|
8=FIX.4.4|9=61|35=0|34=10|49=Initiator|52=20191218-10:57:58.378|56=Acceptor|10=251|
8=FIX.4.4|9=61|35=0|34=10|49=Acceptor|52=20191218-10:57:58.573|56=Initiator|10=248|
8=FIX.4.4|9=61|35=0|34=11|49=Initiator|52=20191218-10:58:04.379|56=Acceptor|10=245|
8=FIX.4.4|9=61|35=0|34=11|49=Acceptor|52=20191218-10:58:04.573|56=Initiator|10=241|
8=FIX.4.4|9=61|35=0|34=12|49=Initiator|52=20191218-10:58:10.379|56=Acceptor|10=243|
8=FIX.4.4|9=61|35=0|34=12|49=Acceptor|52=20191218-10:58:10.572|56=Initiator|10=238|
8=FIX.4.4|9=61|35=0|34=13|49=Initiator|52=20191218-10:58:16.380|56=Acceptor|10=242|
8=FIX.4.4|9=61|35=0|34=13|49=Acceptor|52=20191218-10:58:16.573|56=Initiator|10=246|
8=FIX.4.4|9=61|35=0|34=14|49=Initiator|52=20191218-10:58:22.378|56=Acceptor|10=247|
8=FIX.4.4|9=61|35=0|34=14|49=Acceptor|52=20191218-10:58:22.572|56=Initiator|10=243|
8=FIX.4.4|9=61|35=0|34=15|49=Initiator|52=20191218-10:58:28.380|56=Acceptor|10=247|
8=FIX.4.4|9=61|35=0|34=15|49=Acceptor|52=20191218-10:58:28.573|56=Initiator|10=251|
8=FIX.4.4|9=61|35=0|34=16|49=Initiator|52=20191218-10:58:34.378|56=Acceptor|10=252|
8=FIX.4.4|9=61|35=0|34=16|49=Acceptor|52=20191218-10:58:34.572|56=Initiator|10=248|
8=FIX.4.4|9=61|35=0|34=17|49=Initiator|52=20191218-10:58:40.379|56=Acceptor|10=251|
8=FIX.4.4|9=61|35=0|34=17|49=Acceptor|52=20191218-10:58:40.573|56=Initiator|10=247|
8=FIX.4.4|9=61|35=0|34=18|49=Initiator|52=20191218-10:58:46.379|56=Acceptor|10=002|
8=FIX.4.4|9=61|35=0|34=18|49=Acceptor|52=20191218-10:58:46.572|56=Initiator|10=253|
8=FIX.4.4|9=61|35=0|34=19|49=Initiator|52=20191218-10:58:52.378|56=Acceptor|10=255|
8=FIX.4.4|9=61|35=0|34=19|49=Acceptor|52=20191218-10:58:52.573|56=Initiator|10=252|
8=FIX.4.4|9=61|35=0|34=20|49=Initiator|52=20191218-10:58:58.378|56=Acceptor|10=253|
8=FIX.4.4|9=61|35=0|34=20|49=Acceptor|52=20191218-10:58:58.573|56=Initiator|10=250|
8=FIX.4.4|9=61|35=0|34=21|49=Initiator|52=20191218-10:59:04.379|56=Acceptor|10=247|
8=FIX.4.4|9=61|35=0|34=21|49=Acceptor|52=20191218-10:59:04.573|56=Initiator|10=243|
8=FIX.4.4|9=61|35=0|34=22|49=Initiator|52=20191218-10:59:10.379|56=Acceptor|10=245|
8=FIX.4.4|9=61|35=0|34=22|49=Acceptor|52=20191218-10:59:10.572|56=Initiator|10=240|
8=FIX.4.4|9=61|35=0|34=23|49=Initiator|52=20191218-10:59:16.378|56=Acceptor|10=251|
8=FIX.4.4|9=61|35=0|34=23|49=Acceptor|52=20191218-10:59:16.572|56=Initiator|10=247|
8=FIX.4.4|9=61|35=0|34=24|49=Initiator|52=20191218-10:59:22.378|56=Acceptor|10=249|
8=FIX.4.4|9=61|35=0|34=24|49=Acceptor|52=20191218-10:59:22.573|56=Initiator|10=246|
8=FIX.4.4|9=61|35=0|34=25|49=Initiator|52=20191218-10:59:28.378|56=Acceptor|10=000|
8=FIX.4.4|9=61|35=0|34=25|49=Acceptor|52=20191218-10:59:28.573|56=Initiator|10=253|
8=FIX.4.4|9=61|35=0|34=26|49=Initiator|52=20191218-10:59:34.378|56=Acceptor|10=254|
8=FIX.4.4|9=61|35=0|34=26|49=Acceptor|52=20191218-10:59:34.573|56=Initiator|10=251|
8=FIX.4.4|9=61|35=0|34=27|49=Initiator|52=20191218-10:59:40.379|56=Acceptor|10=253|
8=FIX.4.4|9=61|35=0|34=27|49=Acceptor|52=20191218-10:59:40.572|56=Initiator|10=248|
8=FIX.4.4|9=61|35=0|34=28|49=Initiator|52=20191218-10:59:46.379|56=Acceptor|10=004|
8=FIX.4.4|9=61|35=0|34=28|49=Acceptor|52=20191218-10:59:46.572|56=Initiator|10=255|
8=FIX.4.4|9=61|35=0|34=29|49=Initiator|52=20191218-10:59:52.379|56=Acceptor|10=002|
8=FIX.4.4|9=61|35=0|34=29|49=Acceptor|52=20191218-10:59:52.572|56=Initiator|10=253|
8=FIX.4.4|9=61|35=0|34=30|49=Initiator|52=20191218-10:59:58.379|56=Acceptor|10=000|
8=FIX.4.4|9=61|35=0|34=30|49=Acceptor|52=20191218-10:59:58.573|56=Initiator|10=252|
8=FIX.4.4|9=61|35=0|34=31|49=Initiator|52=20191218-11:00:04.378|56=Acceptor|10=234|
8=FIX.4.4|9=61|35=0|34=31|49=Acceptor|52=20191218-11:00:04.573|56=Initiator|10=231|
8=FIX.4.4|9=61|35=0|34=32|49=Initiator|52=20191218-11:00:10.378|56=Acceptor|10=232|
8=FIX.4.4|9=61|35=0|34=32|49=Acceptor|52=20191218-11:00:10.572|56=Initiator|10=228|
8=FIX.4.4|9=61|35=0|34=33|49=Initiator|52=20191218-11:00:16.379|56=Acceptor|10=240|
8=FIX.4.4|9=61|35=0|34=33|49=Acceptor|52=20191218-11:00:16.572|56=Initiator|10=235|
8=FIX.4.4|9=61|35=0|34=34|49=Initiator|52=20191218-11:00:22.378|56=Acceptor|10=237|
8=FIX.4.4|9=61|35=0|34=34|49=Acceptor|52=20191218-11:00:22.573|56=Initiator|10=234|
8=FIX.4.4|9=61|35=0|34=35|49=Initiator|52=20191218-11:00:28.379|56=Acceptor|10=245|
8=FIX.4.4|9=61|35=0|34=35|49=Acceptor|52=20191218-11:00:28.571|56=Initiator|10=239|
8=FIX.4.4|9=61|35=0|34=36|49=Initiator|52=20191218-11:00:34.378|56=Acceptor|10=242|
8=FIX.4.4|9=61|35=0|34=36|49=Acceptor|52=20191218-11:00:34.573|56=Initiator|10=239|
8=FIX.4.4|9=61|35=0|34=37|49=Initiator|52=20191218-11:00:40.379|56=Acceptor|10=241|
8=FIX.4.4|9=61|35=0|34=37|49=Acceptor|52=20191218-11:00:40.571|56=Initiator|10=235|
8=FIX.4.4|9=61|35=0|34=38|49=Initiator|52=20191218-11:00:46.378|56=Acceptor|10=247|
8=FIX.4.4|9=61|35=0|34=38|49=Acceptor|52=20191218-11:00:46.572|56=Initiator|10=243|
8=FIX.4.4|9=61|35=0|34=39|49=Initiator|52=20191218-11:00:52.379|56=Acceptor|10=246|
8=FIX.4.4|9=61|35=0|34=39|49=Acceptor|52=20191218-11:00:52.571|56=Initiator|10=240|
8=FIX.4.4|9=61|35=0|34=40|49=Initiator|52=20191218-11:00:58.378|56=Acceptor|10=243|
8=FIX.4.4|9=61|35=0|34=40|49=Acceptor|52=20191218-11:00:58.572|56=Initiator|10=239|
8=FIX.4.4|9=61|35=0|34=41|49=Initiator|52=20191218-11:01:04.394|56=Acceptor|10=234|
8=FIX.4.4|9=61|35=0|34=41|49=Acceptor|52=20191218-11:01:04.574|56=Initiator|10=234|
8=FIX.4.4|9=61|35=0|34=42|49=Acceptor|52=20191218-11:01:10.573|56=Initiator|10=231|
8=FIX.4.4|9=61|35=0|34=42|49=Initiator|52=20191218-11:01:10.665|56=Acceptor|10=233|
8=FIX.4.4|9=61|35=0|34=43|49=Acceptor|52=20191218-11:01:16.573|56=Initiator|10=238|
8=FIX.4.4|9=61|35=0|34=43|49=Initiator|52=20191218-11:01:17.379|56=Acceptor|10=243|
8=FIX.4.4|9=61|35=0|34=44|49=Acceptor|52=20191218-11:01:22.589|56=Initiator|10=243|
8=FIX.4.4|9=61|35=0|34=44|49=Initiator|52=20191218-11:01:23.379|56=Acceptor|10=241|
8=FIX.4.4|9=61|35=0|34=45|49=Initiator|52=20191218-11:01:29.379|56=Acceptor|10=248|
8=FIX.4.4|9=61|35=0|34=45|49=Acceptor|52=20191218-11:01:29.442|56=Initiator|10=239|
8=FIX.4.4|9=61|35=0|34=46|49=Initiator|52=20191218-11:01:35.397|56=Acceptor|10=246|
8=FIX.4.4|9=61|35=0|34=46|49=Acceptor|52=20191218-11:01:35.481|56=Initiator|10=240|
8=FIX.4.4|9=61|35=0|34=47|49=Acceptor|52=20191218-11:01:41.571|56=Initiator|10=238|
8=FIX.4.4|9=61|35=0|34=47|49=Initiator|52=20191218-11:01:41.618|56=Acceptor|10=240|
8=FIX.4.4|9=61|35=0|34=48|49=Acceptor|52=20191218-11:01:47.575|56=Initiator|10=249|
8=FIX.4.4|9=61|35=0|34=48|49=Initiator|52=20191218-11:01:47.738|56=Acceptor|10=250|
8=FIX.4.4|9=61|35=0|34=49|49=Acceptor|52=20191218-11:01:53.572|56=Initiator|10=244|
8=FIX.4.4|9=61|35=0|34=49|49=Initiator|52=20191218-11:01:54.378|56=Acceptor|10=249|
8=FIX.4.4|9=61|35=0|34=50|49=Acceptor|52=20191218-11:01:59.573|56=Initiator|10=243|
8=FIX.4.4|9=61|35=0|34=50|49=Initiator|52=20191218-11:02:00.378|56=Acceptor|10=233|
8=FIX.4.4|9=61|35=0|34=51|49=Acceptor|52=20191218-11:02:05.573|56=Initiator|10=236|
8=FIX.4.4|9=61|35=0|34=51|49=Initiator|52=20191218-11:02:06.379|56=Acceptor|10=241|
8=FIX.4.4|9=61|35=0|34=52|49=Acceptor|52=20191218-11:02:11.571|56=Initiator|10=232|
8=FIX.4.4|9=61|35=0|34=52|49=Initiator|52=20191218-11:02:12.378|56=Acceptor|10=238|
8=FIX.4.4|9=61|35=0|34=53|49=Acceptor|52=20191218-11:02:17.573|56=Initiator|10=241|
8=FIX.4.4|9=61|35=0|34=53|49=Initiator|52=20191218-11:02:18.378|56=Acceptor|10=245|
8=FIX.4.4|9=61|35=0|34=54|49=Acceptor|52=20191218-11:02:23.572|56=Initiator|10=238|
8=FIX.4.4|9=61|35=0|34=54|49=Initiator|52=20191218-11:02:24.378|56=Acceptor|10=243|
8=FIX.4.4|9=61|35=0|34=55|49=Acceptor|52=20191218-11:02:29.572|56=Initiator|10=245|
8=FIX.4.4|9=61|35=0|34=55|49=Initiator|52=20191218-11:02:30.378|56=Acceptor|10=241|
8=FIX.4.4|9=61|35=0|34=56|49=Acceptor|52=20191218-11:02:35.980|56=Initiator|10=246|
8=FIX.4.4|9=61|35=0|34=56|49=Initiator|52=20191218-11:02:36.409|56=Acceptor|10=243|
8=FIX.4.4|9=61|35=0|34=57|49=Acceptor|52=20191218-11:02:42.575|56=Initiator|10=245|
8=FIX.4.4|9=61|35=0|34=57|49=Initiator|52=20191218-11:02:42.808|56=Acceptor|10=244|
8=FIX.4.4|9=61|35=0|34=58|49=Acceptor|52=20191218-11:02:48.591|56=Initiator|10=250|
8=FIX.4.4|9=61|35=0|34=58|49=Initiator|52=20191218-11:02:49.382|56=Acceptor|10=249|
8=FIX.4.4|9=61|35=0|34=59|49=Initiator|52=20191218-11:02:55.379|56=Acceptor|10=253|
8=FIX.4.4|9=61|35=0|34=59|49=Acceptor|52=20191218-11:02:55.423|56=Initiator|10=243|
8=FIX.4.4|9=61|35=0|34=60|49=Initiator|52=20191218-11:03:01.378|56=Acceptor|10=236|
8=FIX.4.4|9=61|35=0|34=60|49=Acceptor|52=20191218-11:03:01.433|56=Initiator|10=228|
8=FIX.4.4|9=61|35=0|34=61|49=Initiator|52=20191218-11:03:07.378|56=Acceptor|10=243|
8=FIX.4.4|9=61|35=0|34=61|49=Acceptor|52=20191218-11:03:07.427|56=Initiator|10=238|
8=FIX.4.4|9=61|35=0|34=62|49=Initiator|52=20191218-11:03:13.378|56=Acceptor|10=241|
8=FIX.4.4|9=61|35=0|34=62|49=Acceptor|52=20191218-11:03:13.420|56=Initiator|10=229|
8=FIX.4.4|9=61|35=0|34=63|49=Initiator|52=20191218-11:03:19.378|56=Acceptor|10=248|
8=FIX.4.4|9=61|35=0|34=63|49=Acceptor|52=20191218-11:03:19.428|56=Initiator|10=244|
8=FIX.4.4|9=61|35=0|34=64|49=Initiator|52=20191218-11:03:25.380|56=Acceptor|10=239|
8=FIX.4.4|9=61|35=0|34=64|49=Acceptor|52=20191218-11:03:25.431|56=Initiator|10=236|
8=FIX.4.4|9=61|35=0|34=65|49=Initiator|52=20191218-11:03:31.378|56=Acceptor|10=244|
8=FIX.4.4|9=61|35=0|34=65|49=Acceptor|52=20191218-11:03:31.428|56=Initiator|10=240|
8=FIX.4.4|9=61|35=0|34=66|49=Initiator|52=20191218-11:03:37.378|56=Acceptor|10=251|
8=FIX.4.4|9=61|35=0|34=66|49=Acceptor|52=20191218-11:03:37.426|56=Initiator|10=245|
8=FIX.4.4|9=61|35=0|34=67|49=Initiator|52=20191218-11:03:43.378|56=Acceptor|10=249|
8=FIX.4.4|9=61|35=0|34=67|49=Acceptor|52=20191218-11:03:43.439|56=Initiator|10=247|
8=FIX.4.4|9=61|35=0|34=68|49=Initiator|52=20191218-11:03:49.378|56=Acceptor|10=000|
8=FIX.4.4|9=61|35=0|34=68|49=Acceptor|52=20191218-11:03:49.571|56=Initiator|10=251|
8=FIX.4.4|9=61|35=0|34=69|49=Initiator|52=20191218-11:03:55.378|56=Acceptor|10=254|
8=FIX.4.4|9=61|35=0|34=69|49=Acceptor|52=20191218-11:03:55.572|56=Initiator|10=250|
8=FIX.4.4|9=61|35=0|34=70|49=Initiator|52=20191218-11:04:01.378|56=Acceptor|10=238|
8=FIX.4.4|9=61|35=0|34=70|49=Acceptor|52=20191218-11:04:01.573|56=Initiator|10=235|
8=FIX.4.4|9=61|35=0|34=71|49=Initiator|52=20191218-11:04:07.379|56=Acceptor|10=246|
8=FIX.4.4|9=61|35=0|34=71|49=Acceptor|52=20191218-11:04:07.573|56=Initiator|10=242|
8=FIX.4.4|9=61|35=0|34=72|49=Initiator|52=20191218-11:04:13.379|56=Acceptor|10=244|
8=FIX.4.4|9=61|35=0|34=72|49=Acceptor|52=20191218-11:04:13.572|56=Initiator|10=239|
8=FIX.4.4|9=61|35=0|34=73|49=Initiator|52=20191218-11:04:19.378|56=Acceptor|10=250|
8=FIX.4.4|9=61|35=0|34=73|49=Acceptor|52=20191218-11:04:19.572|56=Initiator|10=246|
8=FIX.4.4|9=61|35=0|34=74|49=Initiator|52=20191218-11:04:25.379|56=Acceptor|10=249|
8=FIX.4.4|9=61|35=0|34=74|49=Acceptor|52=20191218-11:04:25.573|56=Initiator|10=245|
8=FIX.4.4|9=61|35=0|34=75|49=Initiator|52=20191218-11:04:31.379|56=Acceptor|10=247|
8=FIX.4.4|9=61|35=0|34=75|49=Acceptor|52=20191218-11:04:31.573|56=Initiator|10=243|
8=FIX.4.4|9=61|35=0|34=76|49=Initiator|52=20191218-11:04:37.379|56=Acceptor|10=254|
8=FIX.4.4|9=61|35=0|34=76|49=Acceptor|52=20191218-11:04:37.573|56=Initiator|10=250|
8=FIX.4.4|9=61|35=0|34=77|49=Initiator|52=20191218-11:04:43.379|56=Acceptor|10=252|
8=FIX.4.4|9=61|35=0|34=77|49=Acceptor|52=20191218-11:04:43.573|56=Initiator|10=248|
8=FIX.4.4|9=61|35=0|34=78|49=Initiator|52=20191218-11:04:49.378|56=Acceptor|10=002|
8=FIX.4.4|9=61|35=0|34=78|49=Acceptor|52=20191218-11:04:49.572|56=Initiator|10=254|
8=FIX.4.4|9=61|35=0|34=79|49=Initiator|52=20191218-11:04:55.378|56=Acceptor|10=000|
8=FIX.4.4|9=61|35=0|34=79|49=Acceptor|52=20191218-11:04:55.572|56=Initiator|10=252|
8=FIX.4.4|9=61|35=0|34=80|49=Initiator|52=20191218-11:05:01.378|56=Acceptor|10=240|
8=FIX.4.4|9=61|35=0|34=80|49=Acceptor|52=20191218-11:05:01.572|56=Initiator|10=236|
8=FIX.4.4|9=61|35=0|34=81|49=Initiator|52=20191218-11:05:07.379|56=Acceptor|10=248|
8=FIX.4.4|9=61|35=0|34=81|49=Acceptor|52=20191218-11:05:07.573|56=Initiator|10=244|
8=FIX.4.4|9=61|35=0|34=82|49=Initiator|52=20191218-11:05:13.378|56=Acceptor|10=245|
8=FIX.4.4|9=61|35=0|34=82|49=Acceptor|52=20191218-11:05:13.573|56=Initiator|10=242|
8=FIX.4.4|9=61|35=0|34=83|49=Initiator|52=20191218-11:05:19.378|56=Acceptor|10=252|
8=FIX.4.4|9=61|35=0|34=83|49=Acceptor|52=20191218-11:05:19.573|56=Initiator|10=249|
8=FIX.4.4|9=61|35=0|34=84|49=Initiator|52=20191218-11:05:25.378|56=Acceptor|10=250|
8=FIX.4.4|9=61|35=0|34=84|49=Acceptor|52=20191218-11:05:25.573|56=Initiator|10=247|
8=FIX.4.4|9=61|35=0|34=85|49=Initiator|52=20191218-11:05:31.378|56=Acceptor|10=248|
8=FIX.4.4|9=61|35=0|34=85|49=Acceptor|52=20191218-11:05:31.580|56=Initiator|10=243|
8=FIX.4.4|9=61|35=0|34=86|49=Initiator|52=20191218-11:05:37.378|56=Acceptor|10=255|
8=FIX.4.4|9=61|35=0|34=86|49=Acceptor|52=20191218-11:05:37.573|56=Initiator|10=252|
8=FIX.4.4|9=61|35=0|34=87|49=Initiator|52=20191218-11:05:43.378|56=Acceptor|10=253|
8=FIX.4.4|9=61|35=0|34=87|49=Acceptor|52=20191218-11:05:43.573|56=Initiator|10=250|
8=FIX.4.4|9=61|35=0|34=88|49=Initiator|52=20191218-11:05:49.378|56=Acceptor|10=004|
8=FIX.4.4|9=61|35=0|34=88|49=Acceptor|52=20191218-11:05:49.571|56=Initiator|10=255|
8=FIX.4.4|9=61|35=0|34=89|49=Initiator|52=20191218-11:05:55.379|56=Acceptor|10=003|
8=FIX.4.4|9=61|35=0|34=89|49=Acceptor|52=20191218-11:05:55.573|56=Initiator|10=255|
8=FIX.4.4|9=61|35=0|34=90|49=Initiator|52=20191218-11:06:01.378|56=Acceptor|10=242|
8=FIX.4.4|9=61|35=0|34=90|49=Acceptor|52=20191218-11:06:01.573|56=Initiator|10=239|
8=FIX.4.4|9=61|35=0|34=91|49=Initiator|52=20191218-11:06:07.378|56=Acceptor|10=249|
8=FIX.4.4|9=61|35=0|34=91|49=Acceptor|52=20191218-11:06:07.572|56=Initiator|10=245|
8=FIX.4.4|9=61|35=0|34=92|49=Initiator|52=20191218-11:06:13.378|56=Acceptor|10=247|
8=FIX.4.4|9=61|35=0|34=92|49=Acceptor|52=20191218-11:06:13.573|56=Initiator|10=244|
8=FIX.4.4|9=61|35=0|34=93|49=Initiator|52=20191218-11:06:19.379|56=Acceptor|10=255|
8=FIX.4.4|9=61|35=0|34=93|49=Acceptor|52=20191218-11:06:19.572|56=Initiator|10=250|
8=FIX.4.4|9=61|35=0|34=94|49=Initiator|52=20191218-11:06:25.378|56=Acceptor|10=252|
8=FIX.4.4|9=61|35=0|34=94|49=Acceptor|52=20191218-11:06:25.577|56=Initiator|10=253|
8=FIX.4.4|9=61|35=0|34=95|49=Initiator|52=20191218-11:06:31.379|56=Acceptor|10=251|
8=FIX.4.4|9=61|35=0|34=95|49=Acceptor|52=20191218-11:06:31.573|56=Initiator|10=247|
8=FIX.4.4|9=61|35=0|34=96|49=Initiator|52=20191218-11:06:37.378|56=Acceptor|10=001|
8=FIX.4.4|9=61|35=0|34=96|49=Acceptor|52=20191218-11:06:37.573|56=Initiator|10=254|
8=FIX.4.4|9=61|35=0|34=97|49=Initiator|52=20191218-11:06:43.378|56=Acceptor|10=255|
8=FIX.4.4|9=61|35=0|34=97|49=Acceptor|52=20191218-11:06:43.573|56=Initiator|10=252|
8=FIX.4.4|9=61|35=0|34=98|49=Initiator|52=20191218-11:06:49.379|56=Acceptor|10=007|
8=FIX.4.4|9=61|35=0|34=98|49=Acceptor|52=20191218-11:06:49.573|56=Initiator|10=003|
8=FIX.4.4|9=61|35=0|34=99|49=Initiator|52=20191218-11:06:55.379|56=Acceptor|10=005|
8=FIX.4.4|9=61|35=0|34=99|49=Acceptor|52=20191218-11:06:55.573|56=Initiator|10=001|
8=FIX.4.4|9=62|35=0|34=100|49=Initiator|52=20191218-11:07:01.378|56=Acceptor|10=028|
8=FIX.4.4|9=62|35=0|34=100|49=Acceptor|52=20191218-11:07:01.571|56=Initiator|10=023|
8=FIX.4.4|9=62|35=0|34=101|49=Initiator|52=20191218-11:07:07.378|56=Acceptor|10=035|
8=FIX.4.4|9=62|35=0|34=101|49=Acceptor|52=20191218-11:07:07.572|56=Initiator|10=031|
8=FIX.4.4|9=62|35=0|34=102|49=Initiator|52=20191218-11:07:13.379|56=Acceptor|10=034|
8=FIX.4.4|9=62|35=0|34=102|49=Acceptor|52=20191218-11:07:13.572|56=Initiator|10=029|
8=FIX.4.4|9=62|35=0|34=103|49=Initiator|52=20191218-11:07:19.380|56=Acceptor|10=033|
8=FIX.4.4|9=62|35=0|34=103|49=Acceptor|52=20191218-11:07:19.571|56=Initiator|10=035|
8=FIX.4.4|9=62|35=0|34=104|49=Initiator|52=20191218-11:07:25.379|56=Acceptor|10=039|
8=FIX.4.4|9=62|35=0|34=104|49=Acceptor|52=20191218-11:07:25.573|56=Initiator|10=035|
8=FIX.4.4|9=62|35=0|34=105|49=Initiator|52=20191218-11:07:31.379|56=Acceptor|10=037|
8=FIX.4.4|9=62|35=0|34=105|49=Acceptor|52=20191218-11:07:31.573|56=Initiator|10=033|
8=FIX.4.4|9=62|35=0|34=106|49=Initiator|52=20191218-11:07:37.378|56=Acceptor|10=043|
8=FIX.4.4|9=62|35=0|34=106|49=Acceptor|52=20191218-11:07:37.571|56=Initiator|10=038|
8=FIX.4.4|9=62|35=0|34=107|49=Initiator|52=20191218-11:07:43.378|56=Acceptor|10=041|
8=FIX.4.4|9=62|35=0|34=107|49=Acceptor|52=20191218-11:07:43.571|56=Initiator|10=036|
8=FIX.4.4|9=62|35=0|34=108|49=Initiator|52=20191218-11:07:49.378|56=Acceptor|10=048|
8=FIX.4.4|9=62|35=0|34=108|49=Acceptor|52=20191218-11:07:49.571|56=Initiator|10=043|
8=FIX.4.4|9=62|35=0|34=109|49=Initiator|52=20191218-11:07:55.378|56=Acceptor|10=046|
8=FIX.4.4|9=62|35=0|34=109|49=Acceptor|52=20191218-11:07:55.572|56=Initiator|10=042|
8=FIX.4.4|9=62|35=0|34=110|49=Initiator|52=20191218-11:08:01.379|56=Acceptor|10=031|
8=FIX.4.4|9=62|35=0|34=110|49=Acceptor|52=20191218-11:08:01.572|56=Initiator|10=026|
8=FIX.4.4|9=62|35=0|34=111|49=Initiator|52=20191218-11:08:07.378|56=Acceptor|10=037|
8=FIX.4.4|9=62|35=0|34=111|49=Acceptor|52=20191218-11:08:07.573|56=Initiator|10=034|
8=FIX.4.4|9=73|35=A|34=112|49=Initiator|52=20191218-11:08:10.512|56=Acceptor|98=0|108=6|10=021|
8=FIX.4.4|9=62|35=0|34=112|49=Initiator|52=20191218-11:08:13.379|56=Acceptor|10=036|
8=FIX.4.4|9=62|35=0|34=112|49=Acceptor|52=20191218-11:08:13.572|56=Initiator|10=031|
8=FIX.4.4|9=62|35=0|34=113|49=Initiator|52=20191218-11:08:19.378|56=Acceptor|10=042|
8=FIX.4.4|9=62|35=0|34=113|49=Acceptor|52=20191218-11:08:19.572|56=Initiator|10=038|
8=FIX.4.4|9=62|35=0|34=114|49=Initiator|52=20191218-11:08:25.379|56=Acceptor|10=041|
8=FIX.4.4|9=62|35=0|34=114|49=Acceptor|52=20191218-11:08:25.573|56=Initiator|10=037|
8=FIX.4.4|9=62|35=0|34=115|49=Initiator|52=20191218-11:08:31.378|56=Acceptor|10=038|
8=FIX.4.4|9=62|35=0|34=115|49=Acceptor|52=20191218-11:08:31.572|56=Initiator|10=034|
8=FIX.4.4|9=62|35=0|34=116|49=Initiator|52=20191218-11:08:37.379|56=Acceptor|10=046|
8=FIX.4.4|9=62|35=0|34=116|49=Acceptor|52=20191218-11:08:37.573|56=Initiator|10=042|
8=FIX.4.4|9=73|35=A|34=113|49=Initiator|52=20191218-11:08:40.487|56=Acceptor|98=0|108=6|10=036|
8=FIX.4.4|9=62|35=0|34=117|49=Initiator|52=20191218-11:08:43.379|56=Acceptor|10=044|
8=FIX.4.4|9=62|35=0|34=117|49=Acceptor|52=20191218-11:08:43.573|56=Initiator|10=040|
8=FIX.4.4|9=62|35=0|34=118|49=Initiator|52=20191218-11:08:49.379|56=Acceptor|10=051|
8=FIX.4.4|9=62|35=0|34=118|49=Acceptor|52=20191218-11:08:49.572|56=Initiator|10=046|
8=FIX.4.4|9=62|35=0|34=119|49=Initiator|52=20191218-11:08:55.379|56=Acceptor|10=049|
8=FIX.4.4|9=62|35=0|34=119|49=Acceptor|52=20191218-11:08:55.572|56=Initiator|10=044|
8=FIX.4.4|9=62|35=0|34=120|49=Initiator|52=20191218-11:09:01.379|56=Acceptor|10=033|
